{
  "abi": [
    {
      "type": "receive",
      "stateMutability": "payable"
    },
    {
      "type": "function",
      "name": "addStake",
      "inputs": [
        {
          "name": "unstakeDelaySec",
          "type": "uint32",
          "internalType": "uint32"
        }
      ],
      "outputs": [],
      "stateMutability": "payable"
    },
    {
      "type": "function",
      "name": "balanceOf",
      "inputs": [
        {
          "name": "account",
          "type": "address",
          "internalType": "address"
        }
      ],
      "outputs": [
        {
          "name": "",
          "type": "uint256",
          "internalType": "uint256"
        }
      ],
      "stateMutability": "view"
    },
    {
      "type": "function",
      "name": "delegateAndRevert",
      "inputs": [
        {
          "name": "target",
          "type": "address",
          "internalType": "address"
        },
        {
          "name": "data",
          "type": "bytes",
          "internalType": "bytes"
        }
      ],
      "outputs": [],
      "stateMutability": "nonpayable"
    },
    {
      "type": "function",
      "name": "depositTo",
      "inputs": [
        {
          "name": "account",
          "type": "address",
          "internalType": "address"
        }
      ],
      "outputs": [],
      "stateMutability": "payable"
    },
    {
      "type": "function",
      "name": "deposits",
      "inputs": [
        {
          "name": "",
          "type": "address",
          "internalType": "address"
        }
      ],
      "outputs": [
        {
          "name": "deposit",
          "type": "uint256",
          "internalType": "uint256"
        },
        {
          "name": "staked",
          "type": "bool",
          "internalType": "bool"
        },
        {
          "name": "stake",
          "type": "uint112",
          "internalType": "uint112"
        },
        {
          "name": "unstakeDelaySec",
          "type": "uint32",
          "internalType": "uint32"
        },
        {
          "name": "withdrawTime",
          "type": "uint48",
          "internalType": "uint48"
        }
      ],
      "stateMutability": "view"
    },
    {
      "type": "function",
      "name": "getDepositInfo",
      "inputs": [
        {
          "name": "account",
          "type": "address",
          "internalType": "address"
        }
      ],
      "outputs": [
        {
          "name": "info",
          "type": "tuple",
          "internalType": "struct IStakeManager.DepositInfo",
          "components": [
            {
              "name": "deposit",
              "type": "uint256",
              "internalType": "uint256"
            },
            {
              "name": "staked",
              "type": "bool",
              "internalType": "bool"
            },
            {
              "name": "stake",
              "type": "uint112",
              "internalType": "uint112"
            },
            {
              "name": "unstakeDelaySec",
              "type": "uint32",
              "internalType": "uint32"
            },
            {
              "name": "withdrawTime",
              "type": "uint48",
              "internalType": "uint48"
            }
          ]
        }
      ],
      "stateMutability": "view"
    },
    {
      "type": "function",
      "name": "getGasConsumed",
      "inputs": [
        {
          "name": "account",
          "type": "address",
          "internalType": "address"
        },
        {
          "name": "phase",
          "type": "uint256",
          "internalType": "uint256"
        }
      ],
      "outputs": [
        {
          "name": "",
          "type": "uint256",
          "internalType": "uint256"
        }
      ],
      "stateMutability": "view"
    },
    {
      "type": "function",
      "name": "getNonce",
      "inputs": [
        {
          "name": "sender",
          "type": "address",
          "internalType": "address"
        },
        {
          "name": "key",
          "type": "uint192",
          "internalType": "uint192"
        }
      ],
      "outputs": [
        {
          "name": "nonce",
          "type": "uint256",
          "internalType": "uint256"
        }
      ],
      "stateMutability": "view"
    },
    {
      "type": "function",
      "name": "getSenderAddress",
      "inputs": [
        {
          "name": "initCode",
          "type": "bytes",
          "internalType": "bytes"
        }
      ],
      "outputs": [],
      "stateMutability": "nonpayable"
    },
    {
      "type": "function",
      "name": "getUserOpHash",
      "inputs": [
        {
          "name": "userOp",
          "type": "tuple",
          "internalType": "struct PackedUserOperation",
          "components": [
            {
              "name": "sender",
              "type": "address",
              "internalType": "address"
            },
            {
              "name": "nonce",
              "type": "uint256",
              "internalType": "uint256"
            },
            {
              "name": "initCode",
              "type": "bytes",
              "internalType": "bytes"
            },
            {
              "name": "callData",
              "type": "bytes",
              "internalType": "bytes"
            },
            {
              "name": "accountGasLimits",
              "type": "bytes32",
              "internalType": "bytes32"
            },
            {
              "name": "preVerificationGas",
              "type": "uint256",
              "internalType": "uint256"
            },
            {
              "name": "gasFees",
              "type": "bytes32",
              "internalType": "bytes32"
            },
            {
              "name": "paymasterAndData",
              "type": "bytes",
              "internalType": "bytes"
            },
            {
              "name": "signature",
              "type": "bytes",
              "internalType": "bytes"
            }
          ]
        }
      ],
      "outputs": [
        {
          "name": "",
          "type": "bytes32",
          "internalType": "bytes32"
        }
      ],
      "stateMutability": "view"
    },
    {
      "type": "function",
      "name": "handleAggregatedOps",
      "inputs": [
        {
          "name": "opsPerAggregator",
          "type": "tuple[]",
          "internalType": "struct IEntryPoint.UserOpsPerAggregator[]",
          "components": [
            {
              "name": "userOps",
              "type": "tuple[]",
              "internalType": "struct PackedUserOperation[]",
              "components": [
                {
                  "name": "sender",
                  "type": "address",
                  "internalType": "address"
                },
                {
                  "name": "nonce",
                  "type": "uint256",
                  "internalType": "uint256"
                },
                {
                  "name": "initCode",
                  "type": "bytes",
                  "internalType": "bytes"
                },
                {
                  "name": "callData",
                  "type": "bytes",
                  "internalType": "bytes"
                },
                {
                  "name": "accountGasLimits",
                  "type": "bytes32",
                  "internalType": "bytes32"
                },
                {
                  "name": "preVerificationGas",
                  "type": "uint256",
                  "internalType": "uint256"
                },
                {
                  "name": "gasFees",
                  "type": "bytes32",
                  "internalType": "bytes32"
                },
                {
                  "name": "paymasterAndData",
                  "type": "bytes",
                  "internalType": "bytes"
                },
                {
                  "name": "signature",
                  "type": "bytes",
                  "internalType": "bytes"
                }
              ]
            },
            {
              "name": "aggregator",
              "type": "address",
              "internalType": "contract IAggregator"
            },
            {
              "name": "signature",
              "type": "bytes",
              "internalType": "bytes"
            }
          ]
        },
        {
          "name": "beneficiary",
          "type": "address",
          "internalType": "address payable"
        }
      ],
      "outputs": [],
      "stateMutability": "nonpayable"
    },
    {
      "type": "function",
      "name": "handleOps",
      "inputs": [
        {
          "name": "ops",
          "type": "tuple[]",
          "internalType": "struct PackedUserOperation[]",
          "components": [
            {
              "name": "sender",
              "type": "address",
              "internalType": "address"
            },
            {
              "name": "nonce",
              "type": "uint256",
              "internalType": "uint256"
            },
            {
              "name": "initCode",
              "type": "bytes",
              "internalType": "bytes"
            },
            {
              "name": "callData",
              "type": "bytes",
              "internalType": "bytes"
            },
            {
              "name": "accountGasLimits",
              "type": "bytes32",
              "internalType": "bytes32"
            },
            {
              "name": "preVerificationGas",
              "type": "uint256",
              "internalType": "uint256"
            },
            {
              "name": "gasFees",
              "type": "bytes32",
              "internalType": "bytes32"
            },
            {
              "name": "paymasterAndData",
              "type": "bytes",
              "internalType": "bytes"
            },
            {
              "name": "signature",
              "type": "bytes",
              "internalType": "bytes"
            }
          ]
        },
        {
          "name": "beneficiary",
          "type": "address",
          "internalType": "address payable"
        }
      ],
      "outputs": [],
      "stateMutability": "nonpayable"
    },
    {
      "type": "function",
      "name": "incrementNonce",
      "inputs": [
        {
          "name": "key",
          "type": "uint192",
          "internalType": "uint192"
        }
      ],
      "outputs": [],
      "stateMutability": "nonpayable"
    },
    {
      "type": "function",
      "name": "innerHandleOp",
      "inputs": [
        {
          "name": "callData",
          "type": "bytes",
          "internalType": "bytes"
        },
        {
          "name": "opInfo",
          "type": "tuple",
          "internalType": "struct EntryPoint.UserOpInfo",
          "components": [
            {
              "name": "mUserOp",
              "type": "tuple",
              "internalType": "struct EntryPoint.MemoryUserOp",
              "components": [
                {
                  "name": "sender",
                  "type": "address",
                  "internalType": "address"
                },
                {
                  "name": "nonce",
                  "type": "uint256",
                  "internalType": "uint256"
                },
                {
                  "name": "verificationGasLimit",
                  "type": "uint256",
                  "internalType": "uint256"
                },
                {
                  "name": "callGasLimit",
                  "type": "uint256",
                  "internalType": "uint256"
                },
                {
                  "name": "paymasterVerificationGasLimit",
                  "type": "uint256",
                  "internalType": "uint256"
                },
                {
                  "name": "paymasterPostOpGasLimit",
                  "type": "uint256",
                  "internalType": "uint256"
                },
                {
                  "name": "preVerificationGas",
                  "type": "uint256",
                  "internalType": "uint256"
                },
                {
                  "name": "paymaster",
                  "type": "address",
                  "internalType": "address"
                },
                {
                  "name": "maxFeePerGas",
                  "type": "uint256",
                  "internalType": "uint256"
                },
                {
                  "name": "maxPriorityFeePerGas",
                  "type": "uint256",
                  "internalType": "uint256"
                }
              ]
            },
            {
              "name": "userOpHash",
              "type": "bytes32",
              "internalType": "bytes32"
            },
            {
              "name": "prefund",
              "type": "uint256",
              "internalType": "uint256"
            },
            {
              "name": "contextOffset",
              "type": "uint256",
              "internalType": "uint256"
            },
            {
              "name": "preOpGas",
              "type": "uint256",
              "internalType": "uint256"
            }
          ]
        },
        {
          "name": "context",
          "type": "bytes",
          "internalType": "bytes"
        }
      ],
      "outputs": [
        {
          "name": "actualGasCost",
          "type": "uint256",
          "internalType": "uint256"
        }
      ],
      "stateMutability": "nonpayable"
    },
    {
      "type": "function",
      "name": "nonceSequenceNumber",
      "inputs": [
        {
          "name": "",
          "type": "address",
          "internalType": "address"
        },
        {
          "name": "",
          "type": "uint192",
          "internalType": "uint192"
        }
      ],
      "outputs": [
        {
          "name": "",
          "type": "uint256",
          "internalType": "uint256"
        }
      ],
      "stateMutability": "view"
    },
    {
      "type": "function",
      "name": "supportsInterface",
      "inputs": [
        {
          "name": "interfaceId",
          "type": "bytes4",
          "internalType": "bytes4"
        }
      ],
      "outputs": [
        {
          "name": "",
          "type": "bool",
          "internalType": "bool"
        }
      ],
      "stateMutability": "view"
    },
    {
      "type": "function",
      "name": "unlockStake",
      "inputs": [],
      "outputs": [],
      "stateMutability": "nonpayable"
    },
    {
      "type": "function",
      "name": "withdrawStake",
      "inputs": [
        {
          "name": "withdrawAddress",
          "type": "address",
          "internalType": "address payable"
        }
      ],
      "outputs": [],
      "stateMutability": "nonpayable"
    },
    {
      "type": "function",
      "name": "withdrawTo",
      "inputs": [
        {
          "name": "withdrawAddress",
          "type": "address",
          "internalType": "address payable"
        },
        {
          "name": "withdrawAmount",
          "type": "uint256",
          "internalType": "uint256"
        }
      ],
      "outputs": [],
      "stateMutability": "nonpayable"
    },
    {
      "type": "event",
      "name": "AccountDeployed",
      "inputs": [
        {
          "name": "userOpHash",
          "type": "bytes32",
          "indexed": true,
          "internalType": "bytes32"
        },
        {
          "name": "sender",
          "type": "address",
          "indexed": true,
          "internalType": "address"
        },
        {
          "name": "factory",
          "type": "address",
          "indexed": false,
          "internalType": "address"
        },
        {
          "name": "paymaster",
          "type": "address",
          "indexed": false,
          "internalType": "address"
        }
      ],
      "anonymous": false
    },
    {
      "type": "event",
      "name": "BeforeExecution",
      "inputs": [],
      "anonymous": false
    },
    {
      "type": "event",
      "name": "Deposited",
      "inputs": [
        {
          "name": "account",
          "type": "address",
          "indexed": true,
          "internalType": "address"
        },
        {
          "name": "totalDeposit",
          "type": "uint256",
          "indexed": false,
          "internalType": "uint256"
        }
      ],
      "anonymous": false
    },
    {
      "type": "event",
      "name": "PostOpRevertReason",
      "inputs": [
        {
          "name": "userOpHash",
          "type": "bytes32",
          "indexed": true,
          "internalType": "bytes32"
        },
        {
          "name": "sender",
          "type": "address",
          "indexed": true,
          "internalType": "address"
        },
        {
          "name": "nonce",
          "type": "uint256",
          "indexed": false,
          "internalType": "uint256"
        },
        {
          "name": "revertReason",
          "type": "bytes",
          "indexed": false,
          "internalType": "bytes"
        }
      ],
      "anonymous": false
    },
    {
      "type": "event",
      "name": "SignatureAggregatorChanged",
      "inputs": [
        {
          "name": "aggregator",
          "type": "address",
          "indexed": true,
          "internalType": "address"
        }
      ],
      "anonymous": false
    },
    {
      "type": "event",
      "name": "StakeLocked",
      "inputs": [
        {
          "name": "account",
          "type": "address",
          "indexed": true,
          "internalType": "address"
        },
        {
          "name": "totalStaked",
          "type": "uint256",
          "indexed": false,
          "internalType": "uint256"
        },
        {
          "name": "unstakeDelaySec",
          "type": "uint256",
          "indexed": false,
          "internalType": "uint256"
        }
      ],
      "anonymous": false
    },
    {
      "type": "event",
      "name": "StakeUnlocked",
      "inputs": [
        {
          "name": "account",
          "type": "address",
          "indexed": true,
          "internalType": "address"
        },
        {
          "name": "withdrawTime",
          "type": "uint256",
          "indexed": false,
          "internalType": "uint256"
        }
      ],
      "anonymous": false
    },
    {
      "type": "event",
      "name": "StakeWithdrawn",
      "inputs": [
        {
          "name": "account",
          "type": "address",
          "indexed": true,
          "internalType": "address"
        },
        {
          "name": "withdrawAddress",
          "type": "address",
          "indexed": false,
          "internalType": "address"
        },
        {
          "name": "amount",
          "type": "uint256",
          "indexed": false,
          "internalType": "uint256"
        }
      ],
      "anonymous": false
    },
    {
      "type": "event",
      "name": "UserOperationEvent",
      "inputs": [
        {
          "name": "userOpHash",
          "type": "bytes32",
          "indexed": true,
          "internalType": "bytes32"
        },
        {
          "name": "sender",
          "type": "address",
          "indexed": true,
          "internalType": "address"
        },
        {
          "name": "paymaster",
          "type": "address",
          "indexed": true,
          "internalType": "address"
        },
        {
          "name": "nonce",
          "type": "uint256",
          "indexed": false,
          "internalType": "uint256"
        },
        {
          "name": "success",
          "type": "bool",
          "indexed": false,
          "internalType": "bool"
        },
        {
          "name": "actualGasCost",
          "type": "uint256",
          "indexed": false,
          "internalType": "uint256"
        },
        {
          "name": "actualGasUsed",
          "type": "uint256",
          "indexed": false,
          "internalType": "uint256"
        }
      ],
      "anonymous": false
    },
    {
      "type": "event",
      "name": "UserOperationPrefundTooLow",
      "inputs": [
        {
          "name": "userOpHash",
          "type": "bytes32",
          "indexed": true,
          "internalType": "bytes32"
        },
        {
          "name": "sender",
          "type": "address",
          "indexed": true,
          "internalType": "address"
        },
        {
          "name": "nonce",
          "type": "uint256",
          "indexed": false,
          "internalType": "uint256"
        }
      ],
      "anonymous": false
    },
    {
      "type": "event",
      "name": "UserOperationRevertReason",
      "inputs": [
        {
          "name": "userOpHash",
          "type": "bytes32",
          "indexed": true,
          "internalType": "bytes32"
        },
        {
          "name": "sender",
          "type": "address",
          "indexed": true,
          "internalType": "address"
        },
        {
          "name": "nonce",
          "type": "uint256",
          "indexed": false,
          "internalType": "uint256"
        },
        {
          "name": "revertReason",
          "type": "bytes",
          "indexed": false,
          "internalType": "bytes"
        }
      ],
      "anonymous": false
    },
    {
      "type": "event",
      "name": "Withdrawn",
      "inputs": [
        {
          "name": "account",
          "type": "address",
          "indexed": true,
          "internalType": "address"
        },
        {
          "name": "withdrawAddress",
          "type": "address",
          "indexed": false,
          "internalType": "address"
        },
        {
          "name": "amount",
          "type": "uint256",
          "indexed": false,
          "internalType": "uint256"
        }
      ],
      "anonymous": false
    },
    {
      "type": "error",
      "name": "DelegateAndRevert",
      "inputs": [
        {
          "name": "success",
          "type": "bool",
          "internalType": "bool"
        },
        {
          "name": "ret",
          "type": "bytes",
          "internalType": "bytes"
        }
      ]
    },
    {
      "type": "error",
      "name": "FailedOp",
      "inputs": [
        {
          "name": "opIndex",
          "type": "uint256",
          "internalType": "uint256"
        },
        {
          "name": "reason",
          "type": "string",
          "internalType": "string"
        }
      ]
    },
    {
      "type": "error",
      "name": "FailedOpWithRevert",
      "inputs": [
        {
          "name": "opIndex",
          "type": "uint256",
          "internalType": "uint256"
        },
        {
          "name": "reason",
          "type": "string",
          "internalType": "string"
        },
        {
          "name": "inner",
          "type": "bytes",
          "internalType": "bytes"
        }
      ]
    },
    {
      "type": "error",
      "name": "PostOpReverted",
      "inputs": [
        {
          "name": "returnData",
          "type": "bytes",
          "internalType": "bytes"
        }
      ]
    },
    {
      "type": "error",
      "name": "ReentrancyGuardReentrantCall",
      "inputs": []
    },
    {
      "type": "error",
      "name": "SenderAddressResult",
      "inputs": [
        {
          "name": "sender",
          "type": "address",
          "internalType": "address"
        }
      ]
    },
    {
      "type": "error",
      "name": "SignatureValidationFailed",
      "inputs": [
        {
          "name": "aggregator",
          "type": "address",
          "internalType": "address"
        }
      ]
    }
  ],
  "bytecode": {
    "object": "0x60a0604052604051600e906047565b604051809103905ff0801580156026573d5f803e3d5ffd5b506001600160a01b0316608052348015603d575f80fd5b5060016002556054565b61023e806146b383390190565b6080516146406100735f395f818161125401526132e701526146405ff3fe60806040526004361061013f575f3560e01c806370a08231116100bb578063bb9fe6bf11610071578063dbed18e011610057578063dbed18e01461051c578063ee5a97c81461053b578063fc7e286d14610589575f80fd5b8063bb9fe6bf146104e9578063c23a5cea146104fd575f80fd5b8063850aaf62116100a1578063850aaf62146104985780639b249f69146104b7578063b760faf9146104d6575f80fd5b806370a0823114610438578063765e827f14610479575f80fd5b80631b2e01b81161011057806322cdde4c116100f657806322cdde4c1461023b57806335567e1a1461025a5780635287ce12146102ed575f80fd5b80631b2e01b8146101e6578063205c28781461021c575f80fd5b806242dc531461015357806301ffc9a7146101855780630396cb60146101b45780630bd28e3b146101c7575f80fd5b3661014f5761014d33610659565b005b5f80fd5b34801561015e575f80fd5b5061017261016d366004613966565b6106ba565b6040519081526020015b60405180910390f35b348015610190575f80fd5b506101a461019f366004613a20565b6108c3565b604051901515815260200161017c565b61014d6101c2366004613a5f565b610a3f565b3480156101d2575f80fd5b5061014d6101e1366004613aa9565b610dd1565b3480156101f1575f80fd5b50610172610200366004613ac2565b600160209081525f928352604080842090915290825290205481565b348015610227575f80fd5b5061014d610236366004613af5565b610e18565b348015610246575f80fd5b50610172610255366004613b1f565b610fbd565b348015610265575f80fd5b50610172610274366004613ac2565b73ffffffffffffffffffffffffffffffffffffffff82165f90815260016020908152604080832077ffffffffffffffffffffffffffffffffffffffffffffffff8516845290915290819020549082901b7fffffffffffffffffffffffffffffffffffffffffffffffff0000000000000000161792915050565b3480156102f8575f80fd5b506103d7610307366004613b57565b6040805160a0810182525f808252602082018190529181018290526060810182905260808101919091525073ffffffffffffffffffffffffffffffffffffffff165f9081526020818152604091829020825160a0810184528154815260019091015460ff811615159282019290925261010082046dffffffffffffffffffffffffffff16928101929092526f01000000000000000000000000000000810463ffffffff166060830152730100000000000000000000000000000000000000900465ffffffffffff16608082015290565b60405161017c91905f60a082019050825182526020830151151560208301526dffffffffffffffffffffffffffff604084015116604083015263ffffffff606084015116606083015265ffffffffffff608084015116608083015292915050565b348015610443575f80fd5b50610172610452366004613b57565b73ffffffffffffffffffffffffffffffffffffffff165f9081526020819052604090205490565b348015610484575f80fd5b5061014d610493366004613bb3565b610ffe565b3480156104a3575f80fd5b5061014d6104b2366004613c06565b611174565b3480156104c2575f80fd5b5061014d6104d1366004613c57565b611215565b61014d6104e4366004613b57565b610659565b3480156104f4575f80fd5b5061014d611318565b348015610508575f80fd5b5061014d610517366004613b57565b6114ee565b348015610527575f80fd5b5061014d610536366004613bb3565b6117d6565b348015610546575f80fd5b50610172610555366004613af5565b73ffffffffffffffffffffffffffffffffffffffff919091165f908152600360209081526040808320938352929052205490565b348015610594575f80fd5b5061060f6105a3366004613b57565b5f602081905290815260409020805460019091015460ff81169061010081046dffffffffffffffffffffffffffff16906f01000000000000000000000000000000810463ffffffff1690730100000000000000000000000000000000000000900465ffffffffffff1685565b6040805195865293151560208601526dffffffffffffffffffffffffffff9092169284019290925263ffffffff909116606083015265ffffffffffff16608082015260a00161017c565b5f6106648234611c71565b90508173ffffffffffffffffffffffffffffffffffffffff167f2da466a7b24304f47e87fa2e1e5a81b9831ce54fec19055ce277ca2f39ba42c4826040516106ae91815260200190565b60405180910390a25050565b5f805a905033301461072d576040517f08c379a000000000000000000000000000000000000000000000000000000000815260206004820152601760248201527f4141393220696e7465726e616c2063616c6c206f6e6c7900000000000000000060448201526064015b60405180910390fd5b8451606081015160a082015181016127100160405a603f028161075257610752613c96565b041015610781577fdeaddead000000000000000000000000000000000000000000000000000000005f5260205ffd5b87515f9015610867575f5a90505f61079e855f01515f8d87611cb0565b90506107e6855f015160025a6107b49086613cf0565b73ffffffffffffffffffffffffffffffffffffffff9092165f9081526003602090815260408083209383529290522055565b80610864575f6107f7610800611cc6565b80519091501561085e57855f015173ffffffffffffffffffffffffffffffffffffffff168b602001517f1c4fada7374c0a9ee8841fc38afe82932dc0f8e69012e927f061a8bae611a201886020015184604051610855929190613d4f565b60405180910390a35b60019350505b50505b5f88608001515a86030190506108b5828a8a8a8080601f0160208091040260200160405190810160405280939291908181526020018383808284375f92019190915250879250611cf1915050565b9a9950505050505050505050565b5f7fffffffff0000000000000000000000000000000000000000000000000000000082167f60fc6b6e00000000000000000000000000000000000000000000000000000000148061095557507fffffffff0000000000000000000000000000000000000000000000000000000082167f915074d800000000000000000000000000000000000000000000000000000000145b806109a157507fffffffff0000000000000000000000000000000000000000000000000000000082167fcf28ef9700000000000000000000000000000000000000000000000000000000145b806109ed57507fffffffff0000000000000000000000000000000000000000000000000000000082167f3e84f02100000000000000000000000000000000000000000000000000000000145b80610a3957507f01ffc9a7000000000000000000000000000000000000000000000000000000007fffffffff000000000000000000000000000000000000000000000000000000008316145b92915050565b335f90815260208190526040902063ffffffff8216610aba576040517f08c379a000000000000000000000000000000000000000000000000000000000815260206004820152601a60248201527f6d757374207370656369667920756e7374616b652064656c61790000000000006044820152606401610724565b600181015463ffffffff6f0100000000000000000000000000000090910481169083161015610b45576040517f08c379a000000000000000000000000000000000000000000000000000000000815260206004820152601c60248201527f63616e6e6f7420646563726561736520756e7374616b652074696d65000000006044820152606401610724565b60018101545f90610b6c90349061010090046dffffffffffffffffffffffffffff16613d67565b90505f8111610bd7576040517f08c379a000000000000000000000000000000000000000000000000000000000815260206004820152601260248201527f6e6f207374616b652073706563696669656400000000000000000000000000006044820152606401610724565b6dffffffffffffffffffffffffffff811115610c4f576040517f08c379a000000000000000000000000000000000000000000000000000000000815260206004820152600e60248201527f7374616b65206f766572666c6f770000000000000000000000000000000000006044820152606401610724565b6040805160a08101825283548152600160208083018281526dffffffffffffffffffffffffffff86811685870190815263ffffffff8a8116606088018181525f60808a0181815233808352828a52918c90209a518b55965199909801805494519151965165ffffffffffff16730100000000000000000000000000000000000000027fffffffffffffff000000000000ffffffffffffffffffffffffffffffffffffff979094166f0100000000000000000000000000000002969096167fffffffffffffff00000000000000000000ffffffffffffffffffffffffffffff91909516610100027fffffffffffffffffffffffffffffffffff0000000000000000000000000000ff991515999099167fffffffffffffffffffffffffffffffffff00000000000000000000000000000090941693909317979097179190911691909117179055835185815290810192909252917fa5ae833d0bb1dcd632d98a8b70973e8516812898e19bf27b70071ebc8dc52c01910160405180910390a2505050565b335f90815260016020908152604080832077ffffffffffffffffffffffffffffffffffffffffffffffff851684529091528120805491610e1083613d7a565b919050555050565b335f9081526020819052604090208054821115610e91576040517f08c379a000000000000000000000000000000000000000000000000000000000815260206004820152601960248201527f576974686472617720616d6f756e7420746f6f206c61726765000000000000006044820152606401610724565b8054610e9e908390613cf0565b81556040805173ffffffffffffffffffffffffffffffffffffffff851681526020810184905233917fd1c19fbcd4551a5edfb66d43d2e337c04837afda3482b42bdf569a8fccdae5fb910160405180910390a25f8373ffffffffffffffffffffffffffffffffffffffff16836040515f6040518083038185875af1925050503d805f8114610f47576040519150601f19603f3d011682016040523d82523d5f602084013e610f4c565b606091505b5050905080610fb7576040517f08c379a000000000000000000000000000000000000000000000000000000000815260206004820152601260248201527f6661696c656420746f20776974686472617700000000000000000000000000006044820152606401610724565b50505050565b5f610fc782611f0e565b6040805160208101929092523090820152466060820152608001604051602081830303815290604052805190602001209050919050565b611006611f26565b815f8167ffffffffffffffff8111156110215761102161370a565b60405190808252806020026020018201604052801561105a57816020015b611047613666565b81526020019060019003908161103f5790505b5090505f5b828110156110cf575f82828151811061107a5761107a613db1565b602002602001015190505f806110b4848a8a8781811061109c5761109c613db1565b90506020028101906110ae9190613dde565b85611f67565b915091506110c48483835f6121c2565b50505060010161105f565b506040515f907fbb47ee3e183a558b1a2ff0874b079f3fc5478b7454eacf2bfc5af2ff5878f972908290a15f5b838110156111575761114b8188888481811061111a5761111a613db1565b905060200281019061112c9190613dde565b85848151811061113e5761113e613db1565b6020026020010151612415565b909101906001016110fc565b5061116284826127dd565b50505061116f6001600255565b505050565b5f808473ffffffffffffffffffffffffffffffffffffffff16848460405161119d929190613e1a565b5f60405180830381855af49150503d805f81146111d5576040519150601f19603f3d011682016040523d82523d5f602084013e6111da565b606091505b509150915081816040517f99410554000000000000000000000000000000000000000000000000000000008152600401610724929190613e29565b6040517f570e1a360000000000000000000000000000000000000000000000000000000081525f9073ffffffffffffffffffffffffffffffffffffffff7f0000000000000000000000000000000000000000000000000000000000000000169063570e1a369061128b9086908690600401613e8a565b6020604051808303815f875af11580156112a7573d5f803e3d5ffd5b505050506040513d601f19601f820116820180604052508101906112cb9190613e9d565b6040517f6ca7b80600000000000000000000000000000000000000000000000000000000815273ffffffffffffffffffffffffffffffffffffffff82166004820152909150602401610724565b335f908152602081905260408120600181015490916f0100000000000000000000000000000090910463ffffffff1690036113af576040517f08c379a000000000000000000000000000000000000000000000000000000000815260206004820152600a60248201527f6e6f74207374616b6564000000000000000000000000000000000000000000006044820152606401610724565b600181015460ff1661141d576040517f08c379a000000000000000000000000000000000000000000000000000000000815260206004820152601160248201527f616c726561647920756e7374616b696e670000000000000000000000000000006044820152606401610724565b60018101545f90611447906f01000000000000000000000000000000900463ffffffff1642613eb8565b6001830180547fffffffffffffff000000000000ffffffffffffffffffffffffffffffffffff001673010000000000000000000000000000000000000065ffffffffffff84169081027fffffffffffffffffffffffffffffffffffffffffffffffffffffffffffffff00169190911790915560405190815290915033907ffa9b3c14cc825c412c9ed81b3ba365a5b459439403f18829e572ed53a4180f0a906020016106ae565b335f908152602081905260409020600181015461010090046dffffffffffffffffffffffffffff168061157d576040517f08c379a000000000000000000000000000000000000000000000000000000000815260206004820152601460248201527f4e6f207374616b6520746f2077697468647261770000000000000000000000006044820152606401610724565b6001820154730100000000000000000000000000000000000000900465ffffffffffff16611607576040517f08c379a000000000000000000000000000000000000000000000000000000000815260206004820152601d60248201527f6d7573742063616c6c20756e6c6f636b5374616b6528292066697273740000006044820152606401610724565b60018201544273010000000000000000000000000000000000000090910465ffffffffffff161115611695576040517f08c379a000000000000000000000000000000000000000000000000000000000815260206004820152601b60248201527f5374616b65207769746864726177616c206973206e6f742064756500000000006044820152606401610724565b6001820180547fffffffffffffff000000000000000000000000000000000000000000000000ff1690556040805173ffffffffffffffffffffffffffffffffffffffff851681526020810183905233917fb7c918e0e249f999e965cafeb6c664271b3f4317d296461500e71da39f0cbda3910160405180910390a25f8373ffffffffffffffffffffffffffffffffffffffff16826040515f6040518083038185875af1925050503d805f8114611766576040519150601f19603f3d011682016040523d82523d5f602084013e61176b565b606091505b5050905080610fb7576040517f08c379a000000000000000000000000000000000000000000000000000000000815260206004820152601860248201527f6661696c656420746f207769746864726177207374616b6500000000000000006044820152606401610724565b6117de611f26565b815f805b828110156119cb57368686838181106117fd576117fd613db1565b905060200281019061180f9190613ed6565b9050365f61181d8380613f08565b90925090505f6118336040850160208601613b57565b90507fffffffffffffffffffffffffffffffffffffffffffffffffffffffffffffffff73ffffffffffffffffffffffffffffffffffffffff8216016118d4576040517f08c379a000000000000000000000000000000000000000000000000000000000815260206004820152601760248201527f4141393620696e76616c69642061676772656761746f720000000000000000006044820152606401610724565b73ffffffffffffffffffffffffffffffffffffffff8116156119af5773ffffffffffffffffffffffffffffffffffffffff8116632dd81133848461191b6040890189613f6c565b6040518563ffffffff1660e01b815260040161193a9493929190614119565b5f6040518083038186803b158015611950575f80fd5b505afa925050508015611961575060015b6119af576040517f86a9f75000000000000000000000000000000000000000000000000000000000815273ffffffffffffffffffffffffffffffffffffffff82166004820152602401610724565b6119b98287613d67565b955050600190930192506117e2915050565b505f8167ffffffffffffffff8111156119e6576119e661370a565b604051908082528060200260200182016040528015611a1f57816020015b611a0c613666565b815260200190600190039081611a045790505b5090505f805b84811015611af65736888883818110611a4057611a40613db1565b9050602002810190611a529190613ed6565b9050365f611a608380613f08565b90925090505f611a766040850160208601613b57565b9050815f5b81811015611ae4575f898981518110611a9657611a96613db1565b602002602001015190505f80611ab88b89898781811061109c5761109c613db1565b91509150611ac8848383896121c2565b8a611ad281613d7a565b9b505060019093019250611a7b915050565b505060019094019350611a2592505050565b506040517fbb47ee3e183a558b1a2ff0874b079f3fc5478b7454eacf2bfc5af2ff5878f972905f90a1505f80805b85811015611c2d5736898983818110611b3f57611b3f613db1565b9050602002810190611b519190613ed6565b9050611b636040820160208301613b57565b73ffffffffffffffffffffffffffffffffffffffff167f575ff3acadd5ab348fe1855e217e0f3678f8d767d7494c9f9fefbee2e17cca4d60405160405180910390a2365f611bb18380613f08565b9092509050805f5b81811015611c1c57611bfb88858584818110611bd757611bd7613db1565b9050602002810190611be99190613dde565b8b8b8151811061113e5761113e613db1565b611c059088613d67565b965087611c1181613d7a565b985050600101611bb9565b505060019093019250611b24915050565b506040515f907f575ff3acadd5ab348fe1855e217e0f3678f8d767d7494c9f9fefbee2e17cca4d908290a2611c6286826127dd565b505050505061116f6001600255565b73ffffffffffffffffffffffffffffffffffffffff82165f90815260208190526040812080548290611ca4908590613d67565b91829055509392505050565b5f805f845160208601878987f195945050505050565b60603d82811115611cd45750815b604051602082018101604052818152815f602083013e9392505050565b5f805a85519091505f9081611d0582612920565b60e083015190915073ffffffffffffffffffffffffffffffffffffffff8116611d315782519350611e27565b8093505f88511115611e2757868202955060028a6002811115611d5657611d566141df565b14611e275760a08301516040517f7c627b2100000000000000000000000000000000000000000000000000000000815273ffffffffffffffffffffffffffffffffffffffff831691637c627b2191611db8908e908d908c90899060040161420c565b5f604051808303815f88803b158015611dcf575f80fd5b5087f193505050508015611de1575060015b611e27575f611df1610800611cc6565b9050806040517fad7954bc000000000000000000000000000000000000000000000000000000008152600401610724919061426c565b5a60a0840151606085015160808c015192880399909901980190880380821115611e5a576064600a828403020498909801975b50506040890151878302965086811015611ecc5760028b6002811115611e8257611e826141df565b03611ea457809650611e938a612951565b611e9f8a5f898b6129ad565b611f00565b7fdeadaa51000000000000000000000000000000000000000000000000000000005f5260205ffd5b868103611ed98682611c71565b505f808d6002811115611eee57611eee6141df565b149050611efd8c828b8d6129ad565b50505b505050505050949350505050565b5f611f1882612a35565b805190602001209050919050565b6002805403611f61576040517f3ee5aeb500000000000000000000000000000000000000000000000000000000815260040160405180910390fd5b60028055565b5f805f5a8451909150611f7a8682612af7565b611f8386610fbd565b6020860152604081015161012082015161010083015160a08401516080850151606086015160c0870151861717171717176effffffffffffffffffffffffffffff81111561202d576040517f08c379a000000000000000000000000000000000000000000000000000000000815260206004820152601860248201527f41413934206761732076616c756573206f766572666c6f7700000000000000006044820152606401610724565b5f61205b8460c081015160a08201516080830151606084015160408501516101009095015194010101010290565b905061206a8a8a8a8487612c40565b965061207d845f01518560200151612ebd565b6120ec57896040517f220266b6000000000000000000000000000000000000000000000000000000008152600401610724918152604060208201819052601a908201527f4141323520696e76616c6964206163636f756e74206e6f6e6365000000000000606082015260800190565b825a8603111561216157896040517f220266b6000000000000000000000000000000000000000000000000000000008152600401610724918152604060208201819052601e908201527f41413236206f76657220766572696669636174696f6e4761734c696d69740000606082015260800190565b60e084015160609073ffffffffffffffffffffffffffffffffffffffff1615612195576121908b8b8b85612f17565b975090505b604089018290528060608a015260a08a01355a870301896080018181525050505050505050935093915050565b5f806121cd85613167565b915091508173ffffffffffffffffffffffffffffffffffffffff168373ffffffffffffffffffffffffffffffffffffffff161461226f57856040517f220266b60000000000000000000000000000000000000000000000000000000081526004016107249181526040602082018190526014908201527f41413234207369676e6174757265206572726f72000000000000000000000000606082015260800190565b80156122e057856040517f220266b60000000000000000000000000000000000000000000000000000000081526004016107249181526040602082018190526017908201527f414132322065787069726564206f72206e6f7420647565000000000000000000606082015260800190565b5f6122ea85613167565b9250905073ffffffffffffffffffffffffffffffffffffffff81161561237557866040517f220266b60000000000000000000000000000000000000000000000000000000081526004016107249181526040602082018190526014908201527f41413334207369676e6174757265206572726f72000000000000000000000000606082015260800190565b811561240c57866040517f220266b60000000000000000000000000000000000000000000000000000000081526004016107249181526040602082018190526021908201527f41413332207061796d61737465722065787069726564206f72206e6f7420647560608201527f6500000000000000000000000000000000000000000000000000000000000000608082015260a00190565b50505050505050565b5f805a90505f612426846060015190565b6040519091505f90368261243d60608a018a613f6c565b9150915060605f82600381111561245357843591505b507f72288ed1000000000000000000000000000000000000000000000000000000007fffffffff00000000000000000000000000000000000000000000000000000000821601612592575f8b8b602001516040516024016124b592919061427e565b604080517fffffffffffffffffffffffffffffffffffffffffffffffffffffffffffffffe08184030181529181526020820180517bffffffffffffffffffffffffffffffffffffffffffffffffffffffff167f8dd7712f000000000000000000000000000000000000000000000000000000001790525190915030906242dc53906125489084908f908d90602401614363565b604051602081830303815290604052915060e01b6020820180517bffffffffffffffffffffffffffffffffffffffffffffffffffffffff8381831617835250505050925050612609565b3073ffffffffffffffffffffffffffffffffffffffff166242dc5385858d8b6040516024016125c49493929190614397565b604051602081830303815290604052915060e01b6020820180517bffffffffffffffffffffffffffffffffffffffffffffffffffffffff838183161783525050505091505b60205f8351602085015f305af195505f519850846040525050505050806127d3575f3d8060200361263e5760205f803e5f5191505b507fdeaddead0000000000000000000000000000000000000000000000000000000081036126d157876040517f220266b6000000000000000000000000000000000000000000000000000000008152600401610724918152604060208201819052600f908201527f41413935206f7574206f66206761730000000000000000000000000000000000606082015260800190565b7fdeadaa51000000000000000000000000000000000000000000000000000000008103612739575f86608001515a6127099087613cf0565b6127139190613d67565b604088015190915061272488612951565b612730885f83856129ad565b95506127d19050565b8551805160208089015192015173ffffffffffffffffffffffffffffffffffffffff90911691907ff62676f440ff169a3a9afdbf812e89e7f95975ee8e5c31214ffdef631c5f47929061278d610800611cc6565b60405161279b929190613d4f565b60405180910390a35f86608001515a6127b49087613cf0565b6127be9190613d67565b90506127cd6002888684611cf1565b9550505b505b5050509392505050565b73ffffffffffffffffffffffffffffffffffffffff821661285a576040517f08c379a000000000000000000000000000000000000000000000000000000000815260206004820152601860248201527f4141393020696e76616c69642062656e656669636961727900000000000000006044820152606401610724565b5f8273ffffffffffffffffffffffffffffffffffffffff16826040515f6040518083038185875af1925050503d805f81146128b0576040519150601f19603f3d011682016040523d82523d5f602084013e6128b5565b606091505b505090508061116f576040517f08c379a000000000000000000000000000000000000000000000000000000000815260206004820152601f60248201527f41413931206661696c65642073656e6420746f2062656e6566696369617279006044820152606401610724565b6101008101516101208201515f919080820361293d575092915050565b612949824883016131b6565b949350505050565b805180516020808401519281015160405190815273ffffffffffffffffffffffffffffffffffffffff90921692917f67b4fa9642f42120bf031f3051d1824b0fe25627945b27b8a6a65d5761d5482e910160405180910390a350565b835160e0810151815160208088015193015160405173ffffffffffffffffffffffffffffffffffffffff9384169492909316927f49628fd1471006c1482da88028e9ce4dbb080b815c9b0344d39e5a8e6ec1419f91612a279189908990899093845291151560208401526040830152606082015260800190565b60405180910390a450505050565b6060813560208301355f612a54612a4f6040870187613f6c565b6131cd565b90505f612a67612a4f6060880188613f6c565b9050608086013560a087013560c08801355f612a89612a4f60e08c018c613f6c565b6040805173ffffffffffffffffffffffffffffffffffffffff9a909a1660208b015289810198909852606089019690965250608087019390935260a086019190915260c085015260e08401526101008084019190915281518084039091018152610120909201905292915050565b612b046020830183613b57565b73ffffffffffffffffffffffffffffffffffffffff168152602082810135908201526fffffffffffffffffffffffffffffffff6080808401358281166060850152811c604084015260a084013560c0808501919091528401359182166101008401521c610120820152365f612b7c60e0850185613f6c565b90925090508015612c26576034811015612bf2576040517f08c379a000000000000000000000000000000000000000000000000000000000815260206004820152601d60248201527f4141393320696e76616c6964207061796d6173746572416e64446174610000006044820152606401610724565b612bfc82826131df565b60a0860152608085015273ffffffffffffffffffffffffffffffffffffffff1660e0840152610fb7565b5f60e084018190526080840181905260a084015250505050565b825180515f9190612c5e8887612c5960408b018b613f6c565b61324f565b60e08201515f73ffffffffffffffffffffffffffffffffffffffff8216612cb95773ffffffffffffffffffffffffffffffffffffffff83165f90815260208190526040902054878111612cb357808803612cb5565b5f5b9150505b5f5a60208a01516040517f19822f7c00000000000000000000000000000000000000000000000000000000815291925073ffffffffffffffffffffffffffffffffffffffff8616916319822f7c918a91612d19918f9188906004016143cc565b6020604051808303815f8887f193505050508015612d72575060408051601f3d9081017fffffffffffffffffffffffffffffffffffffffffffffffffffffffffffffffe0168201909252612d6f918101906143f0565b60015b612db6578a612d82610800611cc6565b6040517f65c8fd4d000000000000000000000000000000000000000000000000000000008152600401610724929190614407565b809650612df48560015a850373ffffffffffffffffffffffffffffffffffffffff9092165f9081526003602090815260408083209383529290522055565b5073ffffffffffffffffffffffffffffffffffffffff8316612eaf5773ffffffffffffffffffffffffffffffffffffffff84165f9081526020819052604090208054808a1115612ea9578c6040517f220266b60000000000000000000000000000000000000000000000000000000081526004016107249181526040602082018190526017908201527f41413231206469646e2774207061792070726566756e64000000000000000000606082015260800190565b89900390555b505050505095945050505050565b73ffffffffffffffffffffffffffffffffffffffff82165f90815260016020908152604080832084821c808552925282208054849167ffffffffffffffff8316919085612f0983613d7a565b909155501495945050505050565b60605f805a855160e081015173ffffffffffffffffffffffffffffffffffffffff81165f9081526020819052604090208054939450919290919087811015612fc4578a6040517f220266b6000000000000000000000000000000000000000000000000000000008152600401610724918152604060208201819052601e908201527f41413331207061796d6173746572206465706f73697420746f6f206c6f770000606082015260800190565b878103825f01819055505f846080015190508373ffffffffffffffffffffffffffffffffffffffff166352b7512c828d8d602001518d6040518563ffffffff1660e01b8152600401613018939291906143cc565b5f604051808303815f8887f19350505050801561307457506040513d5f823e601f3d9081017fffffffffffffffffffffffffffffffffffffffffffffffffffffffffffffffe01682016040526130719190810190614453565b60015b6130b8578b613084610800611cc6565b6040517f65c8fd4d0000000000000000000000000000000000000000000000000000000081526004016107249291906144cc565b9098509650805a87031115613158578b6040517f220266b60000000000000000000000000000000000000000000000000000000081526004016107249181526040602082018190526027908201527f41413336206f766572207061796d6173746572566572696669636174696f6e4760608201527f61734c696d697400000000000000000000000000000000000000000000000000608082015260a00190565b50505050505094509492505050565b5f80825f0361317a57505f928392509050565b5f613184846135ea565b9050806040015165ffffffffffff164211806131ab5750806020015165ffffffffffff1642105b905194909350915050565b5f8183106131c457816131c6565b825b9392505050565b5f604051828085833790209392505050565b5f80806131ef6014828688614518565b6131f89161453f565b60601c613209602460148789614518565b613212916145a5565b60801c61322360346024888a614518565b61322c916145a5565b9194506fffffffffffffffffffffffffffffffff16925060801c90509250925092565b8015610fb75782515173ffffffffffffffffffffffffffffffffffffffff81163b156132e057846040517f220266b6000000000000000000000000000000000000000000000000000000008152600401610724918152604060208201819052601f908201527f414131302073656e64657220616c726561647920636f6e737472756374656400606082015260800190565b5f5a90505f7f000000000000000000000000000000000000000000000000000000000000000073ffffffffffffffffffffffffffffffffffffffff1663570e1a36875f01516040015187876040518463ffffffff1660e01b8152600401613348929190613e8a565b6020604051808303815f8887f1158015613364573d5f803e3d5ffd5b50505050506040513d601f19601f820116820180604052508101906133899190613e9d565b905061339b835f5a6107b49086613cf0565b73ffffffffffffffffffffffffffffffffffffffff811661342157866040517f220266b6000000000000000000000000000000000000000000000000000000008152600401610724918152604060208201819052601b908201527f4141313320696e6974436f6465206661696c6564206f72204f4f470000000000606082015260800190565b8273ffffffffffffffffffffffffffffffffffffffff168173ffffffffffffffffffffffffffffffffffffffff16146134be57866040517f220266b600000000000000000000000000000000000000000000000000000000815260040161072491815260406020808301829052908201527f4141313420696e6974436f6465206d7573742072657475726e2073656e646572606082015260800190565b8073ffffffffffffffffffffffffffffffffffffffff163b5f0361354657866040517f220266b600000000000000000000000000000000000000000000000000000000815260040161072491815260406020808301829052908201527f4141313520696e6974436f6465206d757374206372656174652073656e646572606082015260800190565b5f6135546014828789614518565b61355d9161453f565b60601c90508373ffffffffffffffffffffffffffffffffffffffff1687602001517fd51a9c61267aa6196961883ecf5ff2da6619c37dac0fa92122513fb32c032d2d838a5f015160e001516040516135d892919073ffffffffffffffffffffffffffffffffffffffff92831681529116602082015260400190565b60405180910390a35050505050505050565b604080516060810182525f80825260208201819052918101919091528160a081901c65ffffffffffff81165f03613624575065ffffffffffff5b6040805160608101825273ffffffffffffffffffffffffffffffffffffffff909316835260d09490941c602083015265ffffffffffff16928101929092525090565b6040518060a001604052806136e96040518061014001604052805f73ffffffffffffffffffffffffffffffffffffffff1681526020015f81526020015f81526020015f81526020015f81526020015f81526020015f81526020015f73ffffffffffffffffffffffffffffffffffffffff1681526020015f81526020015f81525090565b81526020015f80191681526020015f81526020015f81526020015f81525090565b7f4e487b71000000000000000000000000000000000000000000000000000000005f52604160045260245ffd5b60405160a0810167ffffffffffffffff8111828210171561375a5761375a61370a565b60405290565b604051610140810167ffffffffffffffff8111828210171561375a5761375a61370a565b604051601f82017fffffffffffffffffffffffffffffffffffffffffffffffffffffffffffffffe016810167ffffffffffffffff811182821017156137cb576137cb61370a565b604052919050565b5f67ffffffffffffffff8211156137ec576137ec61370a565b50601f017fffffffffffffffffffffffffffffffffffffffffffffffffffffffffffffffe01660200190565b73ffffffffffffffffffffffffffffffffffffffff81168114613839575f80fd5b50565b803561384781613818565b919050565b5f8183036101c081121561385e575f80fd5b613866613737565b9150610140811215613876575f80fd5b5061387f613760565b6138888361383c565b81526020838101359082015260408084013590820152606080840135908201526080808401359082015260a0808401359082015260c080840135908201526138d260e0840161383c565b60e08201526101008381013590820152610120808401359082015281526101408201356020820152610160820135604082015261018082013560608201526101a0909101356080820152919050565b5f8083601f840112613931575f80fd5b50813567ffffffffffffffff811115613948575f80fd5b60208301915083602082850101111561395f575f80fd5b9250929050565b5f805f80610200858703121561397a575f80fd5b843567ffffffffffffffff811115613990575f80fd5b8501601f810187136139a0575f80fd5b80356139b36139ae826137d3565b613784565b8181528860208385010111156139c7575f80fd5b816020840160208301375f602083830101528096505050506139ec866020870161384c565b92506101e085013567ffffffffffffffff811115613a08575f80fd5b613a1487828801613921565b95989497509550505050565b5f60208284031215613a30575f80fd5b81357fffffffff00000000000000000000000000000000000000000000000000000000811681146131c6575f80fd5b5f60208284031215613a6f575f80fd5b813563ffffffff811681146131c6575f80fd5b803577ffffffffffffffffffffffffffffffffffffffffffffffff81168114613847575f80fd5b5f60208284031215613ab9575f80fd5b6131c682613a82565b5f8060408385031215613ad3575f80fd5b8235613ade81613818565b9150613aec60208401613a82565b90509250929050565b5f8060408385031215613b06575f80fd5b8235613b1181613818565b946020939093013593505050565b5f60208284031215613b2f575f80fd5b813567ffffffffffffffff811115613b45575f80fd5b820161012081850312156131c6575f80fd5b5f60208284031215613b67575f80fd5b81356131c681613818565b5f8083601f840112613b82575f80fd5b50813567ffffffffffffffff811115613b99575f80fd5b6020830191508360208260051b850101111561395f575f80fd5b5f805f60408486031215613bc5575f80fd5b833567ffffffffffffffff811115613bdb575f80fd5b613be786828701613b72565b9094509250506020840135613bfb81613818565b809150509250925092565b5f805f60408486031215613c18575f80fd5b8335613c2381613818565b9250602084013567ffffffffffffffff811115613c3e575f80fd5b613c4a86828701613921565b9497909650939450505050565b5f8060208385031215613c68575f80fd5b823567ffffffffffffffff811115613c7e575f80fd5b613c8a85828601613921565b90969095509350505050565b7f4e487b71000000000000000000000000000000000000000000000000000000005f52601260045260245ffd5b7f4e487b71000000000000000000000000000000000000000000000000000000005f52601160045260245ffd5b81810381811115610a3957610a39613cc3565b5f81518084528060208401602086015e5f6020828601015260207fffffffffffffffffffffffffffffffffffffffffffffffffffffffffffffffe0601f83011685010191505092915050565b828152604060208201525f6129496040830184613d03565b80820180821115610a3957610a39613cc3565b5f7fffffffffffffffffffffffffffffffffffffffffffffffffffffffffffffffff8203613daa57613daa613cc3565b5060010190565b7f4e487b71000000000000000000000000000000000000000000000000000000005f52603260045260245ffd5b5f82357ffffffffffffffffffffffffffffffffffffffffffffffffffffffffffffffee1833603018112613e10575f80fd5b9190910192915050565b818382375f9101908152919050565b8215158152604060208201525f6129496040830184613d03565b81835281816020850137505f602082840101525f60207fffffffffffffffffffffffffffffffffffffffffffffffffffffffffffffffe0601f840116840101905092915050565b602081525f612949602083018486613e43565b5f60208284031215613ead575f80fd5b81516131c681613818565b65ffffffffffff8181168382160190811115610a3957610a39613cc3565b5f82357fffffffffffffffffffffffffffffffffffffffffffffffffffffffffffffffa1833603018112613e10575f80fd5b5f8083357fffffffffffffffffffffffffffffffffffffffffffffffffffffffffffffffe1843603018112613f3b575f80fd5b83018035915067ffffffffffffffff821115613f55575f80fd5b6020019150600581901b360382131561395f575f80fd5b5f8083357fffffffffffffffffffffffffffffffffffffffffffffffffffffffffffffffe1843603018112613f9f575f80fd5b83018035915067ffffffffffffffff821115613fb9575f80fd5b60200191503681900382131561395f575f80fd5b5f8083357fffffffffffffffffffffffffffffffffffffffffffffffffffffffffffffffe1843603018112614000575f80fd5b830160208101925035905067ffffffffffffffff81111561401f575f80fd5b80360382131561395f575f80fd5b6140548261403a8361383c565b73ffffffffffffffffffffffffffffffffffffffff169052565b602081810135908301525f61406c6040830183613fcd565b610120604086015261408361012086018284613e43565b9150506140936060840184613fcd565b85830360608701526140a6838284613e43565b6080868101359088015260a0808701359088015260c0808701359088015292506140d691505060e0840184613fcd565b85830360e08701526140e9838284613e43565b925050506140fb610100840184613fcd565b85830361010087015261410f838284613e43565b9695505050505050565b604080825281018490525f6060600586901b8301810190830187837ffffffffffffffffffffffffffffffffffffffffffffffffffffffffffffffee136839003015b898210156141bd577fffffffffffffffffffffffffffffffffffffffffffffffffffffffffffffffa08786030184528235818112614197575f80fd5b6141a3868d830161402d565b95505060208301925060208401935060018201915061415b565b5050505082810360208401526141d4818587613e43565b979650505050505050565b7f4e487b71000000000000000000000000000000000000000000000000000000005f52602160045260245ffd5b5f60038610614242577f4e487b71000000000000000000000000000000000000000000000000000000005f52602160045260245ffd5b858252608060208301526142596080830186613d03565b6040830194909452506060015292915050565b602081525f6131c66020830184613d03565b604081525f614290604083018561402d565b90508260208301529392505050565b8051805173ffffffffffffffffffffffffffffffffffffffff1683526020810151602084015260408101516040840152606081015160608401526080810151608084015260a081015160a084015260c081015160c084015260e081015161431e60e085018273ffffffffffffffffffffffffffffffffffffffff169052565b5061010081810151908401526101209081015190830152602081015161014083015260408101516101608301526060810151610180830152608001516101a090910152565b61020081525f614377610200830186613d03565b614384602084018661429f565b8281036101e084015261410f8185613d03565b61020081525f6143ac61020083018688613e43565b6143b9602084018661429f565b8281036101e08401526141d48185613d03565b606081525f6143de606083018661402d565b60208301949094525060400152919050565b5f60208284031215614400575f80fd5b5051919050565b82815260606020820152600d60608201527f4141323320726576657274656400000000000000000000000000000000000000608082015260a060408201525f61294960a0830184613d03565b5f8060408385031215614464575f80fd5b825167ffffffffffffffff81111561447a575f80fd5b8301601f8101851361448a575f80fd5b80516144986139ae826137d3565b8181528660208385010111156144ac575f80fd5b8160208401602083015e5f60209282018301529401519395939450505050565b82815260606020820152600d60608201527f4141333320726576657274656400000000000000000000000000000000000000608082015260a060408201525f61294960a0830184613d03565b5f8085851115614526575f80fd5b83861115614532575f80fd5b5050820193919092039150565b80357fffffffffffffffffffffffffffffffffffffffff000000000000000000000000811690601484101561459e577fffffffffffffffffffffffffffffffffffffffff000000000000000000000000808560140360031b1b82161691505b5092915050565b80357fffffffffffffffffffffffffffffffff00000000000000000000000000000000811690601084101561459e577fffffffffffffffffffffffffffffffff00000000000000000000000000000000808560100360031b1b8216169150509291505056fea2646970667358221220e9fa67a419be6b5f50a1cd994c57e055177ca3807244c8f93d63252344ba5db764736f6c634300081a00336080604052348015600e575f80fd5b506102228061001c5f395ff3fe608060405234801561000f575f80fd5b5060043610610029575f3560e01c8063570e1a361461002d575b5f80fd5b61004061003b3660046100f1565b610069565b60405173ffffffffffffffffffffffffffffffffffffffff909116815260200160405180910390f35b5f80610078601482858761015f565b61008191610186565b60601c90505f610094846014818861015f565b8080601f0160208091040260200160405190810160405280939291908181526020018383808284375f92018290525084519495509360209350849250905082850182875af190505f519350806100e8575f93505b50505092915050565b5f8060208385031215610102575f80fd5b823567ffffffffffffffff811115610118575f80fd5b8301601f81018513610128575f80fd5b803567ffffffffffffffff81111561013e575f80fd5b85602082840101111561014f575f80fd5b6020919091019590945092505050565b5f808585111561016d575f80fd5b83861115610179575f80fd5b5050820193919092039150565b80357fffffffffffffffffffffffffffffffffffffffff00000000000000000000000081169060148410156101e5577fffffffffffffffffffffffffffffffffffffffff000000000000000000000000808560140360031b1b82161691505b509291505056fea2646970667358221220c11b30c086844b9adb31c98c01252fbc99e4a5f8fa888c5d3a8e6d4653dceb9664736f6c634300081a0033",
    "linkReferences": {}
  },
  "methodIdentifiers": {
    "addStake(uint32)": "0396cb60",
    "balanceOf(address)": "70a08231",
    "delegateAndRevert(address,bytes)": "850aaf62",
    "depositTo(address)": "b760faf9",
    "deposits(address)": "fc7e286d",
    "getDepositInfo(address)": "5287ce12",
    "getGasConsumed(address,uint256)": "ee5a97c8",
    "getNonce(address,uint192)": "35567e1a",
    "getSenderAddress(bytes)": "9b249f69",
    "getUserOpHash((address,uint256,bytes,bytes,bytes32,uint256,bytes32,bytes,bytes))": "22cdde4c",
    "handleAggregatedOps(((address,uint256,bytes,bytes,bytes32,uint256,bytes32,bytes,bytes)[],address,bytes)[],address)": "dbed18e0",
    "handleOps((address,uint256,bytes,bytes,bytes32,uint256,bytes32,bytes,bytes)[],address)": "765e827f",
    "incrementNonce(uint192)": "0bd28e3b",
    "innerHandleOp(bytes,((address,uint256,uint256,uint256,uint256,uint256,uint256,address,uint256,uint256),bytes32,uint256,uint256,uint256),bytes)": "0042dc53",
    "nonceSequenceNumber(address,uint192)": "1b2e01b8",
    "supportsInterface(bytes4)": "01ffc9a7",
    "unlockStake()": "bb9fe6bf",
    "withdrawStake(address)": "c23a5cea",
    "withdrawTo(address,uint256)": "205c2878"
  },
  "id": 29
}