{
    "abi": [
        {
            "type": "constructor",
            "inputs": [
                {
                    "name": "keystoreStateOracle",
                    "type": "address",
                    "internalType": "contract IKeystoreStateOracle"
                }
            ],
            "stateMutability": "nonpayable"
        },
        {
            "type": "function",
            "name": "KEYSTORE_STATE_ORACLE",
            "inputs": [],
            "outputs": [
                {
                    "name": "",
                    "type": "address",
                    "internalType": "contract IKeystoreStateOracle"
                }
            ],
            "stateMutability": "view"
        },
        {
            "type": "function",
            "name": "accountData",
            "inputs": [
                {
                    "name": "account",
                    "type": "address",
                    "internalType": "address"
                }
            ],
            "outputs": [
                {
                    "name": "keystoreAddress",
                    "type": "bytes32",
                    "internalType": "bytes32"
                },
                {
                    "name": "stateRootValidityInterval",
                    "type": "uint32",
                    "internalType": "uint32"
                },
                {
                    "name": "cacheValidityInterval",
                    "type": "uint32",
                    "internalType": "uint32"
                },
                {
                    "name": "cacheInvalidationTimestamp",
                    "type": "uint48",
                    "internalType": "uint48"
                },
                {
                    "name": "cachedStateRootTimestamp",
                    "type": "uint48",
                    "internalType": "uint48"
                },
                {
                    "name": "cachedKeyData",
                    "type": "bytes",
                    "internalType": "bytes"
                }
            ],
            "stateMutability": "view"
        },
        {
            "type": "function",
            "name": "isInitialized",
            "inputs": [
                {
                    "name": "smartAccount",
                    "type": "address",
                    "internalType": "address"
                }
            ],
            "outputs": [
                {
                    "name": "",
                    "type": "bool",
                    "internalType": "bool"
                }
            ],
            "stateMutability": "view"
        },
        {
            "type": "function",
            "name": "isModuleType",
            "inputs": [
                {
                    "name": "moduleTypeId",
                    "type": "uint256",
                    "internalType": "uint256"
                }
            ],
            "outputs": [
                {
                    "name": "",
                    "type": "bool",
                    "internalType": "bool"
                }
            ],
            "stateMutability": "pure"
        },
        {
            "type": "function",
            "name": "isValidSignatureWithSender",
            "inputs": [
                {
                    "name": "",
                    "type": "address",
                    "internalType": "address"
                },
                {
                    "name": "",
                    "type": "bytes32",
                    "internalType": "bytes32"
                },
                {
                    "name": "",
                    "type": "bytes",
                    "internalType": "bytes"
                }
            ],
            "outputs": [
                {
                    "name": "",
                    "type": "bytes4",
                    "internalType": "bytes4"
                }
            ],
            "stateMutability": "pure"
        },
        {
            "type": "function",
            "name": "moduleId",
            "inputs": [],
            "outputs": [
                {
                    "name": "",
                    "type": "string",
                    "internalType": "string"
                }
            ],
            "stateMutability": "pure"
        },
        {
            "type": "function",
            "name": "onInstall",
            "inputs": [
                {
                    "name": "data",
                    "type": "bytes",
                    "internalType": "bytes"
                }
            ],
            "outputs": [],
            "stateMutability": "nonpayable"
        },
        {
            "type": "function",
            "name": "onUninstall",
            "inputs": [
                {
                    "name": "",
                    "type": "bytes",
                    "internalType": "bytes"
                }
            ],
            "outputs": [],
            "stateMutability": "nonpayable"
        },
        {
            "type": "function",
            "name": "setcacheValidityInterval",
            "inputs": [
                {
                    "name": "newcacheValidityInterval",
                    "type": "uint32",
                    "internalType": "uint32"
                }
            ],
            "outputs": [],
            "stateMutability": "nonpayable"
        },
        {
            "type": "function",
            "name": "setstateRootValidityInterval",
            "inputs": [
                {
                    "name": "newstateRootValidityInterval",
                    "type": "uint32",
                    "internalType": "uint32"
                }
            ],
            "outputs": [],
            "stateMutability": "nonpayable"
        },
        {
            "type": "function",
            "name": "supportsInterface",
            "inputs": [
                {
                    "name": "interfaceId",
                    "type": "bytes4",
                    "internalType": "bytes4"
                }
            ],
            "outputs": [
                {
                    "name": "",
                    "type": "bool",
                    "internalType": "bool"
                }
            ],
            "stateMutability": "pure"
        },
        {
            "type": "function",
            "name": "validateRuntime",
            "inputs": [
                {
                    "name": "",
                    "type": "address",
                    "internalType": "address"
                },
                {
                    "name": "",
                    "type": "uint32",
                    "internalType": "uint32"
                },
                {
                    "name": "",
                    "type": "address",
                    "internalType": "address"
                },
                {
                    "name": "",
                    "type": "uint256",
                    "internalType": "uint256"
                },
                {
                    "name": "",
                    "type": "bytes",
                    "internalType": "bytes"
                },
                {
                    "name": "",
                    "type": "bytes",
                    "internalType": "bytes"
                }
            ],
            "outputs": [],
            "stateMutability": "pure"
        },
        {
            "type": "function",
            "name": "validateSignature",
            "inputs": [
                {
                    "name": "",
                    "type": "address",
                    "internalType": "address"
                },
                {
                    "name": "",
                    "type": "uint32",
                    "internalType": "uint32"
                },
                {
                    "name": "",
                    "type": "address",
                    "internalType": "address"
                },
                {
                    "name": "",
                    "type": "bytes32",
                    "internalType": "bytes32"
                },
                {
                    "name": "",
                    "type": "bytes",
                    "internalType": "bytes"
                }
            ],
            "outputs": [
                {
                    "name": "",
                    "type": "bytes4",
                    "internalType": "bytes4"
                }
            ],
            "stateMutability": "pure"
        },
        {
            "type": "function",
            "name": "validateUserOp",
            "inputs": [
                {
                    "name": "",
                    "type": "uint32",
                    "internalType": "uint32"
                },
                {
                    "name": "userOp",
                    "type": "tuple",
                    "internalType": "struct PackedUserOperation",
                    "components": [
                        {
                            "name": "sender",
                            "type": "address",
                            "internalType": "address"
                        },
                        {
                            "name": "nonce",
                            "type": "uint256",
                            "internalType": "uint256"
                        },
                        {
                            "name": "initCode",
                            "type": "bytes",
                            "internalType": "bytes"
                        },
                        {
                            "name": "callData",
                            "type": "bytes",
                            "internalType": "bytes"
                        },
                        {
                            "name": "accountGasLimits",
                            "type": "bytes32",
                            "internalType": "bytes32"
                        },
                        {
                            "name": "preVerificationGas",
                            "type": "uint256",
                            "internalType": "uint256"
                        },
                        {
                            "name": "gasFees",
                            "type": "bytes32",
                            "internalType": "bytes32"
                        },
                        {
                            "name": "paymasterAndData",
                            "type": "bytes",
                            "internalType": "bytes"
                        },
                        {
                            "name": "signature",
                            "type": "bytes",
                            "internalType": "bytes"
                        }
                    ]
                },
                {
                    "name": "userOpHash",
                    "type": "bytes32",
                    "internalType": "bytes32"
                }
            ],
            "outputs": [
                {
                    "name": "",
                    "type": "uint256",
                    "internalType": "uint256"
                }
            ],
            "stateMutability": "nonpayable"
        },
        {
            "type": "function",
            "name": "validateUserOp",
            "inputs": [
                {
                    "name": "userOp",
                    "type": "tuple",
                    "internalType": "struct PackedUserOperation",
                    "components": [
                        {
                            "name": "sender",
                            "type": "address",
                            "internalType": "address"
                        },
                        {
                            "name": "nonce",
                            "type": "uint256",
                            "internalType": "uint256"
                        },
                        {
                            "name": "initCode",
                            "type": "bytes",
                            "internalType": "bytes"
                        },
                        {
                            "name": "callData",
                            "type": "bytes",
                            "internalType": "bytes"
                        },
                        {
                            "name": "accountGasLimits",
                            "type": "bytes32",
                            "internalType": "bytes32"
                        },
                        {
                            "name": "preVerificationGas",
                            "type": "uint256",
                            "internalType": "uint256"
                        },
                        {
                            "name": "gasFees",
                            "type": "bytes32",
                            "internalType": "bytes32"
                        },
                        {
                            "name": "paymasterAndData",
                            "type": "bytes",
                            "internalType": "bytes"
                        },
                        {
                            "name": "signature",
                            "type": "bytes",
                            "internalType": "bytes"
                        }
                    ]
                },
                {
                    "name": "userOpHash",
                    "type": "bytes32",
                    "internalType": "bytes32"
                }
            ],
            "outputs": [
                {
                    "name": "",
                    "type": "uint256",
                    "internalType": "ERC7579ValidatorBase.ValidationData"
                }
            ],
            "stateMutability": "nonpayable"
        },
        {
            "type": "error",
            "name": "AlreadyInitialized",
            "inputs": [
                {
                    "name": "smartAccount",
                    "type": "address",
                    "internalType": "address"
                }
            ]
        },
        {
            "type": "error",
            "name": "InvalidKeyDataLength",
            "inputs": []
        },
        {
            "type": "error",
            "name": "InvalidKeystoreAddress",
            "inputs": []
        },
        {
            "type": "error",
            "name": "InvalidKeystoreAddress",
            "inputs": []
        },
        {
            "type": "error",
            "name": "InvalidKeystoreStateOracle",
            "inputs": []
        },
        {
            "type": "error",
            "name": "ModuleAlreadyInitialized",
            "inputs": [
                {
                    "name": "smartAccount",
                    "type": "address",
                    "internalType": "address"
                }
            ]
        },
        {
            "type": "error",
            "name": "NoCachedKeyData",
            "inputs": []
        },
        {
            "type": "error",
            "name": "NotAnExclusionProof",
            "inputs": []
        },
        {
            "type": "error",
            "name": "NotInitialized",
            "inputs": [
                {
                    "name": "smartAccount",
                    "type": "address",
                    "internalType": "address"
                }
            ]
        },
        {
            "type": "error",
            "name": "StateRootNotFound",
            "inputs": [
                {
                    "name": "stateRoot",
                    "type": "bytes32",
                    "internalType": "bytes32"
                }
            ]
        },
        {
            "type": "error",
            "name": "UnexpectedCodehash",
            "inputs": [
                {
                    "name": "expectedCodehash",
                    "type": "bytes32",
                    "internalType": "bytes32"
                },
                {
                    "name": "actualCodehash",
                    "type": "bytes32",
                    "internalType": "bytes32"
                }
            ]
        },
        {
            "type": "error",
            "name": "UnexpectedDomainSeparator",
            "inputs": []
        },
        {
            "type": "error",
            "name": "UnsupportedOperation",
            "inputs": []
        }
    ],
    "bytecode": {
        "object": "0x60a0604052348015600e575f80fd5b50604051611ba5380380611ba5833981016040819052602b916061565b6001600160a01b03811660515760405163bae1599760e01b815260040160405180910390fd5b6001600160a01b0316608052608c565b5f602082840312156070575f80fd5b81516001600160a01b03811681146085575f80fd5b9392505050565b608051611afb6100aa5f395f818160f901526108660152611afb5ff3fe608060405234801561000f575f80fd5b50600436106100f0575f3560e01c80638a91b0e311610093578063deb906e711610063578063deb906e714610273578063e7db7f7e14610298578063ecd05961146102dc578063f551e2ee146102f0575f80fd5b80638a91b0e3146101d757806397003203146101ea578063a1308f27146101fd578063d60b347f1461023c575f80fd5b80633a4fc7db116100ce5780633a4fc7db14610189578063465d33e01461019e5780636d61fe70146101b15780637e04ac26146101c4575f80fd5b806301b0aaa6146100f457806301ffc9a7146101455780630ab8785f14610168575b5f80fd5b61011b7f000000000000000000000000000000000000000000000000000000000000000081565b60405173ffffffffffffffffffffffffffffffffffffffff90911681526020015b60405180910390f35b61015861015336600461121c565b6102fe565b604051901515815260200161013c565b61017b610176366004611291565b6103e2565b60405190815260200161013c565b61019c6101973660046112e5565b6103f5565b005b61019c6101ac366004611364565b61047a565b61019c6101bf366004611411565b6104ac565b61019c6101d23660046112e5565b61058f565b61019c6101e5366004611411565b610617565b61017b6101f8366004611450565b6106ad565b604080518082018252601581527f6178696f6d2e6b657973746f72652e76302e322e3400000000000000000000006020820152905161013c91906114de565b61015861024a3660046114f0565b73ffffffffffffffffffffffffffffffffffffffff165f90815260208190526040902054151590565b6102866102813660046114f0565b610c93565b60405161013c9695949392919061150b565b6102ab6102a6366004611563565b610d7a565b6040517fffffffff00000000000000000000000000000000000000000000000000000000909116815260200161013c565b6101586102ea3660046115e1565b60011490565b6102ab6102a63660046115f8565b5f7fffffffff0000000000000000000000000000000000000000000000000000000082167fab3e34c100000000000000000000000000000000000000000000000000000000148061039057507fffffffff0000000000000000000000000000000000000000000000000000000082167f46c0c1b400000000000000000000000000000000000000000000000000000000145b806103dc57507fffffffff0000000000000000000000000000000000000000000000000000000082167f01ffc9a700000000000000000000000000000000000000000000000000000000145b92915050565b5f6103ed83836106ad565b949350505050565b335f9081526020819052604090208054610442576040517ff91bd6f10000000000000000000000000000000000000000000000000000000081523360048201526024015b60405180910390fd5b60010180547fffffffffffffffffffffffffffffffffffffffffffffffffffffffff000000001663ffffffff92909216919091179055565b6040517f9ba6061b00000000000000000000000000000000000000000000000000000000815260040160405180910390fd5b335f9081526020819052604090208054156104f5576040517f93360fbf000000000000000000000000000000000000000000000000000000008152336004820152602401610439565b5f808061050485870187611650565b9194509250905080610542576040517f686617c300000000000000000000000000000000000000000000000000000000815260040160405180910390fd5b60018401805463ffffffff938416640100000000027fffffffffffffffffffffffffffffffffffffffffffffffff0000000000000000909116939094169290921792909217905590555050565b335f90815260208190526040902080546105d7576040517ff91bd6f1000000000000000000000000000000000000000000000000000000008152336004820152602401610439565b600101805463ffffffff909216640100000000027fffffffffffffffffffffffffffffffffffffffffffffffff00000000ffffffff909216919091179055565b335f9081526020819052604090205461065e576040517ff91bd6f1000000000000000000000000000000000000000000000000000000008152336004820152602401610439565b335f9081526020819052604081208181556001810180547fffffffffffffffffffffffff0000000000000000000000000000000000000000169055906106a760028301826111ce565b50505050565b5f366106c46106c061010086018661168a565b5090565b90505f80806106d660208801886114f0565b73ffffffffffffffffffffffffffffffffffffffff16815260208101919091526040015f9081209150606090808061070e868061168a565b90501115610a2257366107246106c0878061168a565b905061073360a082018261168a565b8080601f0160208091040260200160405190810160405280939291908181526020018383808284375f920191909152505082519296505050602111156107a5576040517fb640136600000000000000000000000000000000000000000000000000000000815260040160405180910390fd5b6107ae846116eb565b7fff000000000000000000000000000000000000000000000000000000000000001615610807576040517fddfcdf9e00000000000000000000000000000000000000000000000000000000815260040160405180910390fd5b5f61081d828680519060200120885f0154610dad565b6040517fb64ea3c7000000000000000000000000000000000000000000000000000000008152600481018290529091505f9073ffffffffffffffffffffffffffffffffffffffff7f0000000000000000000000000000000000000000000000000000000000000000169063b64ea3c790602401602060405180830381865afa1580156108ab573d5f803e3d5ffd5b505050506040513d601f19601f820116820180604052508101906108cf9190611757565b90508065ffffffffffff165f03610915576040517fc878ecc400000000000000000000000000000000000000000000000000000000815260048101839052602401610439565b6001870154909450849063ffffffff1661092f818361177c565b60018901549095506e010000000000000000000000000000900465ffffffffffff1661095b828261177c565b65ffffffffffff168665ffffffffffff16118061097e575065ffffffffffff8116155b15610a1857600289016109918982611883565b506001890180547fffffffffffffffffffffffff000000000000ffffffffffffffffffffffffffff166e01000000000000000000000000000065ffffffffffff86160217908190556109f190640100000000900463ffffffff168461177c565b8960010160086101000a81548165ffffffffffff021916908365ffffffffffff1602179055505b5050505050610b28565b60018401546e010000000000000000000000000000900465ffffffffffff165f819003610a7b576040517f362005d200000000000000000000000000000000000000000000000000000000815260040160405180910390fd5b846002018054610a8a906117ec565b80601f0160208091040260200160405190810160405280929190818152602001828054610ab6906117ec565b8015610b015780601f10610ad857610100808354040283529160200191610b01565b820191905f5260205f20905b815481529060010190602001808311610ae457829003601f168201915b50505050600187015491955091935068010000000000000000900465ffffffffffff169150505b5f610b34846021015190565b90505f610b4760408801602089016114f0565b905073ffffffffffffffffffffffffffffffffffffffff81163f828114610ba4576040517fd8f8974a0000000000000000000000000000000000000000000000000000000081526004810184905260248101829052604401610439565b73ffffffffffffffffffffffffffffffffffffffff8216638d9337d387610bce60408c018c61168a565b8e6040518563ffffffff1660e01b8152600401610bee949392919061199a565b5f6040518083038186803b158015610c04575f80fd5b505afa158015610c16573d5f803e3d5ffd5b5050604080516060810182525f815265ffffffffffff808a1660208301528816910152505079ffffffffffff000000000000000000000000000000000000000060a085901b167fffffffffffff000000000000000000000000000000000000000000000000000060d087901b16179b9a5050505050505050505050565b5f60208190529081526040902080546001820154600283018054929363ffffffff8084169464010000000085049091169365ffffffffffff6801000000000000000082048116946e010000000000000000000000000000909204169291610cf9906117ec565b80601f0160208091040260200160405190810160405280929190818152602001828054610d25906117ec565b8015610d705780601f10610d4757610100808354040283529160200191610d70565b820191905f5260205f20905b815481529060010190602001808311610d5357829003601f168201915b5050505050905086565b5f6040517f9ba6061b00000000000000000000000000000000000000000000000000000000815260040160405180910390fd5b5f80610dbc6020860186611a03565b15610fec575f808080610dda610dd560208b018b61168a565b611149565b60408051602081018490529081018d90526080808f0135606083015294985092965090945092505f9101604051602081830303815290604052805190602001209050808814610e55576040517f686617c300000000000000000000000000000000000000000000000000000000815260040160405180910390fd5b6040515f60208201819052602282018390529060420160405160208183030381529060405280519060200120905084811180610eb157507fff000000000000000000000000000000000000000000000000000000000000008616155b158015610efc57508a60600135811080610efa5750610ed660608c0160408d01611a22565b7fff0000000000000000000000000000000000000000000000000000000000000016155b155b15610f33576040517fcb3692bc00000000000000000000000000000000000000000000000000000000815260040160405180910390fd5b610fdf86868d6040016020810190610f4b9190611a22565b604080517f01000000000000000000000000000000000000000000000000000000000000006020808301919091527fff000000000000000000000000000000000000000000000000000000000000009586166021830152602282019490945291909316604282015260608f013560438201526063808201889052835180830390910181526083909101909252815191012090565b9650505050505050611125565b5f84866080013560405160200161100d929190918252602082015260400190565b604080518083037fffffffffffffffffffffffffffffffffffffffffffffffffffffffffffffffe00181529082905280516020918201205f91830182905260228301879052925090604201604051602081830303815290604052805190602001209050611120600160f81b8289604001602081019061108c9190611a22565b604080517f01000000000000000000000000000000000000000000000000000000000000006020808301919091527fff000000000000000000000000000000000000000000000000000000000000009586166021830152602282019490945291909316604282015260608b013560438201526063808201879052835180830390910181526083909101909252815191012090565b925050505b61114061113560c0870187611a61565b838860e0013561116f565b95945050505050565b5f806021848101359060418601359086601f37601f519350602051925092959194509250565b5f84845f5b8181146111c25784811c60011680801561119557600181146111a2576111ab565b875f5284356020526111ab565b84355f52876020525b505060405f20955060209290920191600101611174565b50939695505050505050565b5080546111da906117ec565b5f825580601f106111e9575050565b601f0160209004905f5260205f20908101906112059190611208565b50565b5b808211156106c0575f8155600101611209565b5f6020828403121561122c575f80fd5b81357fffffffff000000000000000000000000000000000000000000000000000000008116811461125b575f80fd5b9392505050565b803563ffffffff81168114611275575f80fd5b919050565b5f610120828403121561128b575f80fd5b50919050565b5f805f606084860312156112a3575f80fd5b6112ac84611262565b9250602084013567ffffffffffffffff8111156112c7575f80fd5b6112d38682870161127a565b93969395505050506040919091013590565b5f602082840312156112f5575f80fd5b61125b82611262565b73ffffffffffffffffffffffffffffffffffffffff81168114611205575f80fd5b5f8083601f84011261132f575f80fd5b50813567ffffffffffffffff811115611346575f80fd5b60208301915083602082850101111561135d575f80fd5b9250929050565b5f805f805f805f8060c0898b03121561137b575f80fd5b8835611386816112fe565b975061139460208a01611262565b965060408901356113a4816112fe565b955060608901359450608089013567ffffffffffffffff8111156113c6575f80fd5b6113d28b828c0161131f565b90955093505060a089013567ffffffffffffffff8111156113f1575f80fd5b6113fd8b828c0161131f565b999c989b5096995094979396929594505050565b5f8060208385031215611422575f80fd5b823567ffffffffffffffff811115611438575f80fd5b6114448582860161131f565b90969095509350505050565b5f8060408385031215611461575f80fd5b823567ffffffffffffffff811115611477575f80fd5b6114838582860161127a565b95602094909401359450505050565b5f81518084528060208401602086015e5f6020828601015260207fffffffffffffffffffffffffffffffffffffffffffffffffffffffffffffffe0601f83011685010191505092915050565b602081525f61125b6020830184611492565b5f60208284031215611500575f80fd5b813561125b816112fe565b86815263ffffffff8616602082015263ffffffff8516604082015265ffffffffffff8416606082015265ffffffffffff8316608082015260c060a08201525f61155760c0830184611492565b98975050505050505050565b5f805f805f8060a08789031215611578575f80fd5b8635611583816112fe565b955061159160208801611262565b945060408701356115a1816112fe565b935060608701359250608087013567ffffffffffffffff8111156115c3575f80fd5b6115cf89828a0161131f565b979a9699509497509295939492505050565b5f602082840312156115f1575f80fd5b5035919050565b5f805f806060858703121561160b575f80fd5b8435611616816112fe565b935060208501359250604085013567ffffffffffffffff811115611638575f80fd5b6116448782880161131f565b95989497509550505050565b5f805f60608486031215611662575f80fd5b61166b84611262565b925061167960208501611262565b929592945050506040919091013590565b5f8083357fffffffffffffffffffffffffffffffffffffffffffffffffffffffffffffffe18436030181126116bd575f80fd5b83018035915067ffffffffffffffff8211156116d7575f80fd5b60200191503681900382131561135d575f80fd5b805160208201517fff00000000000000000000000000000000000000000000000000000000000000811691906001821015611750577fff00000000000000000000000000000000000000000000000000000000000000808360010360031b1b82161692505b5050919050565b5f60208284031215611767575f80fd5b815165ffffffffffff8116811461125b575f80fd5b65ffffffffffff81811683821601908111156103dc577f4e487b71000000000000000000000000000000000000000000000000000000005f52601160045260245ffd5b7f4e487b71000000000000000000000000000000000000000000000000000000005f52604160045260245ffd5b600181811c9082168061180057607f821691505b60208210810361128b577f4e487b71000000000000000000000000000000000000000000000000000000005f52602260045260245ffd5b601f82111561187e57805f5260205f20601f840160051c8101602085101561185c5750805b601f840160051c820191505b8181101561187b575f8155600101611868565b50505b505050565b815167ffffffffffffffff81111561189d5761189d6117bf565b6118b1816118ab84546117ec565b84611837565b6020601f821160018114611902575f83156118cc5750848201515b7fffffffffffffffffffffffffffffffffffffffffffffffffffffffffffffffff600385901b1c1916600184901b17845561187b565b5f848152602081207fffffffffffffffffffffffffffffffffffffffffffffffffffffffffffffffe08516915b8281101561194f578785015182556020948501946001909201910161192f565b508482101561198b57868401517fffffffffffffffffffffffffffffffffffffffffffffffffffffffffffffffff600387901b60f8161c191681555b50505050600190811b01905550565b606081525f6119ac6060830187611492565b8281036020840152848152848660208301375f6020868301015260207fffffffffffffffffffffffffffffffffffffffffffffffffffffffffffffffe0601f87011682010191505082604083015295945050505050565b5f60208284031215611a13575f80fd5b8135801515811461125b575f80fd5b5f60208284031215611a32575f80fd5b81357fff000000000000000000000000000000000000000000000000000000000000008116811461125b575f80fd5b5f8083357fffffffffffffffffffffffffffffffffffffffffffffffffffffffffffffffe1843603018112611a94575f80fd5b83018035915067ffffffffffffffff821115611aae575f80fd5b6020019150600581901b360382131561135d575f80fdfea26469706673582212209495e038605c0cb0d708a7cf4c96d1d3bb3f4a87c28234efb25e4bf5a797943c64736f6c634300081a0033",
        "linkReferences": {}
    },
    "methodIdentifiers": {
        "KEYSTORE_STATE_ORACLE()": "01b0aaa6",
        "accountData(address)": "deb906e7",
        "isInitialized(address)": "d60b347f",
        "isModuleType(uint256)": "ecd05961",
        "isValidSignatureWithSender(address,bytes32,bytes)": "f551e2ee",
        "moduleId()": "a1308f27",
        "onInstall(bytes)": "6d61fe70",
        "onUninstall(bytes)": "8a91b0e3",
        "setcacheValidityInterval(uint32)": "7e04ac26",
        "setstateRootValidityInterval(uint32)": "3a4fc7db",
        "supportsInterface(bytes4)": "01ffc9a7",
        "validateRuntime(address,uint32,address,uint256,bytes,bytes)": "465d33e0",
        "validateSignature(address,uint32,address,bytes32,bytes)": "e7db7f7e",
        "validateUserOp((address,uint256,bytes,bytes,bytes32,uint256,bytes32,bytes,bytes),bytes32)": "97003203",
        "validateUserOp(uint32,(address,uint256,bytes,bytes,bytes32,uint256,bytes32,bytes,bytes),bytes32)": "0ab8785f"
    },
    "id": 202
}