{
    "abi": [
        {
            "type": "constructor",
            "inputs": [
                {
                    "name": "_storageProofVerifier",
                    "type": "address",
                    "internalType": "contract IStorageProofVerifier"
                },
                {
                    "name": "keystoreBridgeAddress",
                    "type": "address",
                    "internalType": "address"
                },
                {
                    "name": "keystoreStateRootStorageSlot",
                    "type": "bytes32",
                    "internalType": "bytes32"
                }
            ],
            "stateMutability": "nonpayable"
        },
        {
            "type": "function",
            "name": "KEYSTORE_BRIDGE_ADDRESS",
            "inputs": [],
            "outputs": [
                {
                    "name": "",
                    "type": "address",
                    "internalType": "address"
                }
            ],
            "stateMutability": "view"
        },
        {
            "type": "function",
            "name": "KEYSTORE_STATE_ROOT_STORAGE_SLOT",
            "inputs": [],
            "outputs": [
                {
                    "name": "",
                    "type": "bytes32",
                    "internalType": "bytes32"
                }
            ],
            "stateMutability": "view"
        },
        {
            "type": "function",
            "name": "acceptOwnership",
            "inputs": [],
            "outputs": [],
            "stateMutability": "nonpayable"
        },
        {
            "type": "function",
            "name": "blockhashes",
            "inputs": [
                {
                    "name": "_blockhash",
                    "type": "bytes32",
                    "internalType": "bytes32"
                }
            ],
            "outputs": [
                {
                    "name": "",
                    "type": "bool",
                    "internalType": "bool"
                }
            ],
            "stateMutability": "view"
        },
        {
            "type": "function",
            "name": "cacheBlockhash",
            "inputs": [],
            "outputs": [],
            "stateMutability": "nonpayable"
        },
        {
            "type": "function",
            "name": "cacheKeystoreStateRootWithProof",
            "inputs": [
                {
                    "name": "storageProof",
                    "type": "tuple",
                    "internalType": "struct IStorageProofVerifier.StorageProof",
                    "components": [
                        {
                            "name": "storageValue",
                            "type": "bytes32",
                            "internalType": "bytes32"
                        },
                        {
                            "name": "blockHeader",
                            "type": "bytes",
                            "internalType": "bytes"
                        },
                        {
                            "name": "accountProof",
                            "type": "bytes[]",
                            "internalType": "bytes[]"
                        },
                        {
                            "name": "storageProof",
                            "type": "bytes[]",
                            "internalType": "bytes[]"
                        }
                    ]
                },
                {
                    "name": "outputRootPreimage",
                    "type": "tuple",
                    "internalType": "struct IKeystoreStateOracle.OutputRootPreimage",
                    "components": [
                        {
                            "name": "stateRoot",
                            "type": "bytes32",
                            "internalType": "bytes32"
                        },
                        {
                            "name": "withdrawalsRoot",
                            "type": "bytes32",
                            "internalType": "bytes32"
                        },
                        {
                            "name": "lastValidBlockhash",
                            "type": "bytes32",
                            "internalType": "bytes32"
                        }
                    ]
                }
            ],
            "outputs": [],
            "stateMutability": "nonpayable"
        },
        {
            "type": "function",
            "name": "keystoreStateRoots",
            "inputs": [
                {
                    "name": "keystoreStateRoot",
                    "type": "bytes32",
                    "internalType": "bytes32"
                }
            ],
            "outputs": [
                {
                    "name": "l1BlockTimestamp",
                    "type": "uint48",
                    "internalType": "uint48"
                }
            ],
            "stateMutability": "view"
        },
        {
            "type": "function",
            "name": "latestStateRoot",
            "inputs": [],
            "outputs": [
                {
                    "name": "",
                    "type": "bytes32",
                    "internalType": "bytes32"
                }
            ],
            "stateMutability": "view"
        },
        {
            "type": "function",
            "name": "owner",
            "inputs": [],
            "outputs": [
                {
                    "name": "",
                    "type": "address",
                    "internalType": "address"
                }
            ],
            "stateMutability": "view"
        },
        {
            "type": "function",
            "name": "pendingOwner",
            "inputs": [],
            "outputs": [
                {
                    "name": "",
                    "type": "address",
                    "internalType": "address"
                }
            ],
            "stateMutability": "view"
        },
        {
            "type": "function",
            "name": "renounceOwnership",
            "inputs": [],
            "outputs": [],
            "stateMutability": "nonpayable"
        },
        {
            "type": "function",
            "name": "storageProofVerifier",
            "inputs": [],
            "outputs": [
                {
                    "name": "",
                    "type": "address",
                    "internalType": "contract IStorageProofVerifier"
                }
            ],
            "stateMutability": "view"
        },
        {
            "type": "function",
            "name": "transferOwnership",
            "inputs": [
                {
                    "name": "newOwner",
                    "type": "address",
                    "internalType": "address"
                }
            ],
            "outputs": [],
            "stateMutability": "nonpayable"
        },
        {
            "type": "function",
            "name": "updateStorageProofVerifier",
            "inputs": [
                {
                    "name": "_newVerifier",
                    "type": "address",
                    "internalType": "contract IStorageProofVerifier"
                }
            ],
            "outputs": [],
            "stateMutability": "nonpayable"
        },
        {
            "type": "event",
            "name": "BlockhashCached",
            "inputs": [
                {
                    "name": "_blockhash",
                    "type": "bytes32",
                    "indexed": false,
                    "internalType": "bytes32"
                }
            ],
            "anonymous": false
        },
        {
            "type": "event",
            "name": "OwnershipTransferStarted",
            "inputs": [
                {
                    "name": "previousOwner",
                    "type": "address",
                    "indexed": true,
                    "internalType": "address"
                },
                {
                    "name": "newOwner",
                    "type": "address",
                    "indexed": true,
                    "internalType": "address"
                }
            ],
            "anonymous": false
        },
        {
            "type": "event",
            "name": "OwnershipTransferred",
            "inputs": [
                {
                    "name": "previousOwner",
                    "type": "address",
                    "indexed": true,
                    "internalType": "address"
                },
                {
                    "name": "newOwner",
                    "type": "address",
                    "indexed": true,
                    "internalType": "address"
                }
            ],
            "anonymous": false
        },
        {
            "type": "error",
            "name": "BlockhashNotFound",
            "inputs": [
                {
                    "name": "_blockhash",
                    "type": "bytes32",
                    "internalType": "bytes32"
                }
            ]
        },
        {
            "type": "error",
            "name": "InvalidOutputRoot",
            "inputs": [
                {
                    "name": "derivedOutputRoot",
                    "type": "bytes32",
                    "internalType": "bytes32"
                },
                {
                    "name": "keystoreOutputRoot",
                    "type": "bytes32",
                    "internalType": "bytes32"
                }
            ]
        },
        {
            "type": "error",
            "name": "OwnableInvalidOwner",
            "inputs": [
                {
                    "name": "owner",
                    "type": "address",
                    "internalType": "address"
                }
            ]
        },
        {
            "type": "error",
            "name": "OwnableUnauthorizedAccount",
            "inputs": [
                {
                    "name": "account",
                    "type": "address",
                    "internalType": "address"
                }
            ]
        },
        {
            "type": "error",
            "name": "StorageProofTooOld",
            "inputs": []
        }
    ],
    "bytecode": {
        "object": "0x60c060405234801561000f575f80fd5b50604051611f06380380611f0683398101604081905261002e91610110565b8181338061005557604051631e4fbdf760e01b81525f600482015260240160405180910390fd5b61005e81610091565b506001600160a01b0391821660805260a052600580546001600160a01b0319169490911693909317909255506101509050565b600180546001600160a01b03191690556100aa816100ad565b50565b5f80546001600160a01b038381166001600160a01b0319831681178455604051919092169283917f8be0079c531659141344cd1fd0a4f28419497f9722a3daafe3b4186f6b6457e09190a35050565b6001600160a01b03811681146100aa575f80fd5b5f805f60608486031215610122575f80fd5b835161012d816100fc565b602085015190935061013e816100fc565b80925050604084015190509250925092565b60805160a051611d8761017f5f395f818161010a015261041301525f818161014401526103f10152611d875ff3fe608060405234801561000f575f80fd5b50600436106100e4575f3560e01c806379ba509711610088578063b64ea3c711610063578063b64ea3c7146101f4578063c294ad3a14610232578063e30c397814610264578063f2fde38b14610282575f80fd5b806379ba5097146101c65780638da5cb5b146101ce578063991beafd146101eb575f80fd5b806306dbcc96116100c357806306dbcc961461013f57806338613d131461018b57806346d8ac391461019e578063715018a6146101be575f80fd5b8062dd9e94146100e857806301c89aee146100fd578063068c53a614610105575b5f80fd5b6100fb6100f6366004611892565b610295565b005b6100fb6102e4565b61012c7f000000000000000000000000000000000000000000000000000000000000000081565b6040519081526020015b60405180910390f35b6101667f000000000000000000000000000000000000000000000000000000000000000081565b60405173ffffffffffffffffffffffffffffffffffffffff9091168152602001610136565b6100fb6101993660046118ad565b61039d565b6005546101669073ffffffffffffffffffffffffffffffffffffffff1681565b6100fb610692565b6100fb6106a5565b5f5473ffffffffffffffffffffffffffffffffffffffff16610166565b61012c60025481565b61021b610202366004611925565b60036020525f908152604090205465ffffffffffff1681565b60405165ffffffffffff9091168152602001610136565b610254610240366004611925565b60046020525f908152604090205460ff1681565b6040519015158152602001610136565b60015473ffffffffffffffffffffffffffffffffffffffff16610166565b6100fb610290366004611892565b61071c565b61029d6107cb565b600580547fffffffffffffffffffffffff00000000000000000000000000000000000000001673ffffffffffffffffffffffffffffffffffffffff92909216919091179055565b7f09bd5a60000000000000000000000000000000000000000000000000000000005f8181526020818181807342000000000000000000000000000000000000155af161032e575f80fd5b505f516040518181527f572523540dd1f11802848edb79d96094fe3fec47c6da3e0be8b8b947592e06049060200160405180910390a15f90815260046020526040902080547fffffffffffffffffffffffffffffffffffffffffffffffffffffffffffffff0016600117905550565b6005546040517ff61c3e5e0000000000000000000000000000000000000000000000000000000081525f91829173ffffffffffffffffffffffffffffffffffffffff9091169063f61c3e5e9061043b9087907f0000000000000000000000000000000000000000000000000000000000000000907f000000000000000000000000000000000000000000000000000000000000000090600401611acc565b6040805180830381865afa158015610455573d5f803e3d5ffd5b505050506040513d601f19601f820116820180604052508101906104799190611baf565b5f81815260046020526040902054919350915060ff166104cd576040517f40ad4c61000000000000000000000000000000000000000000000000000000008152600481018290526024015b60405180910390fd5b604080518435602082810191909152850135818301529084013560608201525f9060800160405160208183030381529060405280519060200120905082811461054c576040517f6da511de00000000000000000000000000000000000000000000000000000000815260048101829052602481018490526044016104c4565b8335365f61055d6020890189611bd1565b915091505f6105a083838080601f0160208091040260200160405190810160405280939291908181526020018383808284375f9201919091525061081d92505050565b90505f6105c682600b815181106105b9576105b9611c32565b6020026020010151610836565b6105cf90611c5f565b5f8681526003602052604090205460e09190911c915065ffffffffffff1680821015610627576040517f1a9156a300000000000000000000000000000000000000000000000000000000815260040160405180910390fd5b5f8681526003602052604080822080547fffffffffffffffffffffffffffffffffffffffffffffffffffff0000000000001665ffffffffffff86811691821790925560025484529190922054909116908110156106845760028790555b505050505050505050505050565b61069a6107cb565b6106a35f61099c565b565b600154339073ffffffffffffffffffffffffffffffffffffffff168114610710576040517f118cdaa700000000000000000000000000000000000000000000000000000000815273ffffffffffffffffffffffffffffffffffffffff821660048201526024016104c4565b6107198161099c565b50565b6107246107cb565b6001805473ffffffffffffffffffffffffffffffffffffffff83167fffffffffffffffffffffffff000000000000000000000000000000000000000090911681179091556107865f5473ffffffffffffffffffffffffffffffffffffffff1690565b73ffffffffffffffffffffffffffffffffffffffff167f38d16b8cac22d99fc7c124b9cd0de2d3fa1faef420bfe791d8c362d765e2270060405160405180910390a350565b5f5473ffffffffffffffffffffffffffffffffffffffff1633146106a3576040517f118cdaa70000000000000000000000000000000000000000000000000000000081523360048201526024016104c4565b606061083061082b836109cd565b610ab4565b92915050565b60605f805f61084485610d10565b919450925090505f81600181111561085e5761085e611ca4565b146108eb576040517f08c379a000000000000000000000000000000000000000000000000000000000815260206004820152603960248201527f524c505265616465723a206465636f646564206974656d207479706520666f7260448201527f206279746573206973206e6f7420612064617461206974656d0000000000000060648201526084016104c4565b6108f58284611cfe565b855114610984576040517f08c379a000000000000000000000000000000000000000000000000000000000815260206004820152603460248201527f524c505265616465723a2062797465732076616c756520636f6e7461696e732060448201527f616e20696e76616c69642072656d61696e64657200000000000000000000000060648201526084016104c4565b6109938560200151848461176b565b95945050505050565b600180547fffffffffffffffffffffffff0000000000000000000000000000000000000000169055610719816117fd565b604080518082019091525f80825260208201525f825111610a96576040517f08c379a000000000000000000000000000000000000000000000000000000000815260206004820152604a60248201527f524c505265616465723a206c656e677468206f6620616e20524c50206974656d60448201527f206d7573742062652067726561746572207468616e207a65726f20746f20626560648201527f206465636f6461626c6500000000000000000000000000000000000000000000608482015260a4016104c4565b50604080518082019091528151815260209182019181019190915290565b60605f805f610ac285610d10565b919450925090506001816001811115610add57610add611ca4565b14610b6a576040517f08c379a000000000000000000000000000000000000000000000000000000000815260206004820152603860248201527f524c505265616465723a206465636f646564206974656d207479706520666f7260448201527f206c697374206973206e6f742061206c697374206974656d000000000000000060648201526084016104c4565b8451610b768385611cfe565b14610c03576040517f08c379a000000000000000000000000000000000000000000000000000000000815260206004820152603260248201527f524c505265616465723a206c697374206974656d2068617320616e20696e766160448201527f6c696420646174612072656d61696e646572000000000000000000000000000060648201526084016104c4565b604080516020808252610420820190925290816020015b604080518082019091525f8082526020820152815260200190600190039081610c1a5790505093505f835b8651811015610d04575f80610c896040518060400160405280858c5f0151610c6d9190611d3e565b8152602001858c60200151610c829190611cfe565b9052610d10565b509150915060405180604001604052808383610ca59190611cfe565b8152602001848b60200151610cba9190611cfe565b815250888581518110610ccf57610ccf611c32565b6020908102919091010152610ce5600185611cfe565b9350610cf18183611cfe565b610cfb9084611cfe565b92505050610c45565b50845250919392505050565b5f805f80845f015111610dcb576040517f08c379a000000000000000000000000000000000000000000000000000000000815260206004820152604a60248201527f524c505265616465723a206c656e677468206f6620616e20524c50206974656d60448201527f206d7573742062652067726561746572207468616e207a65726f20746f20626560648201527f206465636f6461626c6500000000000000000000000000000000000000000000608482015260a4016104c4565b602084015180515f1a607f8111610ded575f60015f9450945094505050611764565b60b78111610ff8575f610e01608083611d3e565b905080875f015111610ebb576040517f08c379a000000000000000000000000000000000000000000000000000000000815260206004820152604e60248201527f524c505265616465723a206c656e677468206f6620636f6e74656e74206d757360448201527f742062652067726561746572207468616e20737472696e67206c656e6774682060648201527f2873686f727420737472696e6729000000000000000000000000000000000000608482015260a4016104c4565b6001838101517fff00000000000000000000000000000000000000000000000000000000000000169082141580610f3457507f80000000000000000000000000000000000000000000000000000000000000007fff00000000000000000000000000000000000000000000000000000000000000821610155b610fe6576040517f08c379a000000000000000000000000000000000000000000000000000000000815260206004820152604d60248201527f524c505265616465723a20696e76616c6964207072656669782c2073696e676c60448201527f652062797465203c203078383020617265206e6f74207072656669786564202860648201527f73686f727420737472696e672900000000000000000000000000000000000000608482015260a4016104c4565b506001955093505f9250611764915050565b60bf8111611342575f61100c60b783611d3e565b905080875f0151116110c6576040517f08c379a000000000000000000000000000000000000000000000000000000000815260206004820152605160248201527f524c505265616465723a206c656e677468206f6620636f6e74656e74206d757360448201527f74206265203e207468616e206c656e677468206f6620737472696e67206c656e60648201527f67746820286c6f6e6720737472696e6729000000000000000000000000000000608482015260a4016104c4565b60018301517fff00000000000000000000000000000000000000000000000000000000000000165f8190036111a3576040517f08c379a000000000000000000000000000000000000000000000000000000000815260206004820152604a60248201527f524c505265616465723a206c656e677468206f6620636f6e74656e74206d757360448201527f74206e6f74206861766520616e79206c656164696e67207a65726f7320286c6f60648201527f6e6720737472696e672900000000000000000000000000000000000000000000608482015260a4016104c4565b600184015160088302610100031c60378111611267576040517f08c379a000000000000000000000000000000000000000000000000000000000815260206004820152604860248201527f524c505265616465723a206c656e677468206f6620636f6e74656e74206d757360448201527f742062652067726561746572207468616e20353520627974657320286c6f6e6760648201527f20737472696e6729000000000000000000000000000000000000000000000000608482015260a4016104c4565b6112718184611cfe565b895111611326576040517f08c379a000000000000000000000000000000000000000000000000000000000815260206004820152604c60248201527f524c505265616465723a206c656e677468206f6620636f6e74656e74206d757360448201527f742062652067726561746572207468616e20746f74616c206c656e677468202860648201527f6c6f6e6720737472696e67290000000000000000000000000000000000000000608482015260a4016104c4565b611331836001611cfe565b975095505f94506117649350505050565b60f78111611421575f61135660c083611d3e565b905080875f015111611410576040517f08c379a000000000000000000000000000000000000000000000000000000000815260206004820152604a60248201527f524c505265616465723a206c656e677468206f6620636f6e74656e74206d757360448201527f742062652067726561746572207468616e206c697374206c656e67746820287360648201527f686f7274206c6973742900000000000000000000000000000000000000000000608482015260a4016104c4565b600195509350849250611764915050565b5f61142d60f783611d3e565b905080875f0151116114e7576040517f08c379a000000000000000000000000000000000000000000000000000000000815260206004820152604d60248201527f524c505265616465723a206c656e677468206f6620636f6e74656e74206d757360448201527f74206265203e207468616e206c656e677468206f66206c697374206c656e677460648201527f6820286c6f6e67206c6973742900000000000000000000000000000000000000608482015260a4016104c4565b60018301517fff00000000000000000000000000000000000000000000000000000000000000165f8190036115c4576040517f08c379a000000000000000000000000000000000000000000000000000000000815260206004820152604860248201527f524c505265616465723a206c656e677468206f6620636f6e74656e74206d757360448201527f74206e6f74206861766520616e79206c656164696e67207a65726f7320286c6f60648201527f6e67206c69737429000000000000000000000000000000000000000000000000608482015260a4016104c4565b600184015160088302610100031c60378111611688576040517f08c379a000000000000000000000000000000000000000000000000000000000815260206004820152604660248201527f524c505265616465723a206c656e677468206f6620636f6e74656e74206d757360448201527f742062652067726561746572207468616e20353520627974657320286c6f6e6760648201527f206c697374290000000000000000000000000000000000000000000000000000608482015260a4016104c4565b6116928184611cfe565b895111611747576040517f08c379a000000000000000000000000000000000000000000000000000000000815260206004820152604a60248201527f524c505265616465723a206c656e677468206f6620636f6e74656e74206d757360448201527f742062652067726561746572207468616e20746f74616c206c656e677468202860648201527f6c6f6e67206c6973742900000000000000000000000000000000000000000000608482015260a4016104c4565b611752836001611cfe565b97509550600194506117649350505050565b9193909250565b60608167ffffffffffffffff81111561178657611786611d11565b6040519080825280601f01601f1916602001820160405280156117b0576020820181803683370190505b50905081156117f6575f6117c48486611cfe565b9050602082015f5b848110156117e45782810151828201526020016117cc565b848111156117f2575f858301525b5050505b9392505050565b5f805473ffffffffffffffffffffffffffffffffffffffff8381167fffffffffffffffffffffffff0000000000000000000000000000000000000000831681178455604051919092169283917f8be0079c531659141344cd1fd0a4f28419497f9722a3daafe3b4186f6b6457e09190a35050565b73ffffffffffffffffffffffffffffffffffffffff81168114610719575f80fd5b5f602082840312156118a2575f80fd5b81356117f681611871565b5f8082840360808112156118bf575f80fd5b833567ffffffffffffffff8111156118d5575f80fd5b8401608081870312156118e6575f80fd5b925060607fffffffffffffffffffffffffffffffffffffffffffffffffffffffffffffffe082011215611917575f80fd5b506020830190509250929050565b5f60208284031215611935575f80fd5b5035919050565b5f8083357fffffffffffffffffffffffffffffffffffffffffffffffffffffffffffffffe184360301811261196f575f80fd5b830160208101925035905067ffffffffffffffff81111561198e575f80fd5b80360382131561199c575f80fd5b9250929050565b81835281816020850137505f602082840101525f60207fffffffffffffffffffffffffffffffffffffffffffffffffffffffffffffffe0601f840116840101905092915050565b5f8083357fffffffffffffffffffffffffffffffffffffffffffffffffffffffffffffffe1843603018112611a1d575f80fd5b830160208101925035905067ffffffffffffffff811115611a3c575f80fd5b8060051b360382131561199c575f80fd5b5f8383855260208501945060208460051b820101835f5b86811015611ac0577fffffffffffffffffffffffffffffffffffffffffffffffffffffffffffffffe0848403018852611a9d828761193c565b611aa88582846119a3565b60209a8b019a90955093909301925050600101611a64565b50909695505050505050565b60608082528435908201525f611ae5602086018661193c565b608080850152611af960e0850182846119a3565b915050611b0960408701876119ea565b7fffffffffffffffffffffffffffffffffffffffffffffffffffffffffffffffa08584030160a0860152611b3e838284611a4d565b92505050611b4f60608701876119ea565b7fffffffffffffffffffffffffffffffffffffffffffffffffffffffffffffffa08584030160c0860152611b84838284611a4d565b73ffffffffffffffffffffffffffffffffffffffff9790971660208601525050505060400152919050565b5f8060408385031215611bc0575f80fd5b505080516020909101519092909150565b5f8083357fffffffffffffffffffffffffffffffffffffffffffffffffffffffffffffffe1843603018112611c04575f80fd5b83018035915067ffffffffffffffff821115611c1e575f80fd5b60200191503681900382131561199c575f80fd5b7f4e487b71000000000000000000000000000000000000000000000000000000005f52603260045260245ffd5b80516020808301519190811015611c9e577fffffffffffffffffffffffffffffffffffffffffffffffffffffffffffffffff8160200360031b1b821691505b50919050565b7f4e487b71000000000000000000000000000000000000000000000000000000005f52602160045260245ffd5b7f4e487b71000000000000000000000000000000000000000000000000000000005f52601160045260245ffd5b8082018082111561083057610830611cd1565b7f4e487b71000000000000000000000000000000000000000000000000000000005f52604160045260245ffd5b8181038181111561083057610830611cd156fea2646970667358221220674bb56921d8db3162172d67d56c6ea379d054230e8f3fadfbae3319fe39426a64736f6c634300081a0033",
        "linkReferences": {}
    },
    "methodIdentifiers": {
        "KEYSTORE_BRIDGE_ADDRESS()": "06dbcc96",
        "KEYSTORE_STATE_ROOT_STORAGE_SLOT()": "068c53a6",
        "acceptOwnership()": "79ba5097",
        "blockhashes(bytes32)": "c294ad3a",
        "cacheBlockhash()": "01c89aee",
        "cacheKeystoreStateRootWithProof((bytes32,bytes,bytes[],bytes[]),(bytes32,bytes32,bytes32))": "38613d13",
        "keystoreStateRoots(bytes32)": "b64ea3c7",
        "latestStateRoot()": "991beafd",
        "owner()": "8da5cb5b",
        "pendingOwner()": "e30c3978",
        "renounceOwnership()": "715018a6",
        "storageProofVerifier()": "46d8ac39",
        "transferOwnership(address)": "f2fde38b",
        "updateStorageProofVerifier(address)": "00dd9e94"
    },
    "id": 212
}